{
  "contractName": "CREDToken",
  "abi": [
    {
      "constant": true,
      "inputs": [],
      "name": "mintingFinished",
      "outputs": [
        {
          "name": "",
          "type": "bool"
        }
      ],
      "payable": false,
      "stateMutability": "view",
      "type": "function"
    },
    {
      "constant": true,
      "inputs": [],
      "name": "name",
      "outputs": [
        {
          "name": "",
          "type": "string"
        }
      ],
      "payable": false,
      "stateMutability": "view",
      "type": "function"
    },
    {
      "constant": false,
      "inputs": [
        {
          "name": "_spender",
          "type": "address"
        },
        {
          "name": "_value",
          "type": "uint256"
        }
      ],
      "name": "approve",
      "outputs": [
        {
          "name": "",
          "type": "bool"
        }
      ],
      "payable": false,
      "stateMutability": "nonpayable",
      "type": "function"
    },
    {
      "constant": true,
      "inputs": [],
      "name": "totalSupply",
      "outputs": [
        {
          "name": "",
          "type": "uint256"
        }
      ],
      "payable": false,
      "stateMutability": "view",
      "type": "function"
    },
    {
      "constant": false,
      "inputs": [
        {
          "name": "_from",
          "type": "address"
        },
        {
          "name": "_to",
          "type": "address"
        },
        {
          "name": "_value",
          "type": "uint256"
        }
      ],
      "name": "transferFrom",
      "outputs": [
        {
          "name": "",
          "type": "bool"
        }
      ],
      "payable": false,
      "stateMutability": "nonpayable",
      "type": "function"
    },
    {
      "constant": false,
      "inputs": [
        {
          "name": "_value",
          "type": "uint256"
        }
      ],
      "name": "mintReserveTokens",
      "outputs": [],
      "payable": false,
      "stateMutability": "nonpayable",
      "type": "function"
    },
    {
      "constant": true,
      "inputs": [],
      "name": "decimals",
      "outputs": [
        {
          "name": "",
          "type": "uint8"
        }
      ],
      "payable": false,
      "stateMutability": "view",
      "type": "function"
    },
    {
      "constant": true,
      "inputs": [],
      "name": "cap",
      "outputs": [
        {
          "name": "",
          "type": "uint256"
        }
      ],
      "payable": false,
      "stateMutability": "view",
      "type": "function"
    },
    {
      "constant": true,
      "inputs": [],
      "name": "unlockedReserveAndTeamFunds",
      "outputs": [
        {
          "name": "",
          "type": "bool"
        }
      ],
      "payable": false,
      "stateMutability": "view",
      "type": "function"
    },
    {
      "constant": true,
      "inputs": [],
      "name": "advisorsVesting",
      "outputs": [
        {
          "name": "",
          "type": "address"
        }
      ],
      "payable": false,
      "stateMutability": "view",
      "type": "function"
    },
    {
      "constant": false,
      "inputs": [
        {
          "name": "_to",
          "type": "address"
        },
        {
          "name": "_amount",
          "type": "uint256"
        }
      ],
      "name": "mint",
      "outputs": [
        {
          "name": "",
          "type": "bool"
        }
      ],
      "payable": false,
      "stateMutability": "nonpayable",
      "type": "function"
    },
    {
      "constant": true,
      "inputs": [],
      "name": "teamWallet",
      "outputs": [
        {
          "name": "",
          "type": "address"
        }
      ],
      "payable": false,
      "stateMutability": "view",
      "type": "function"
    },
    {
      "constant": false,
      "inputs": [
        {
          "name": "_value",
          "type": "uint256"
        }
      ],
      "name": "mintTeamTokens",
      "outputs": [],
      "payable": false,
      "stateMutability": "nonpayable",
      "type": "function"
    },
    {
      "constant": false,
      "inputs": [
        {
          "name": "_spender",
          "type": "address"
        },
        {
          "name": "_subtractedValue",
          "type": "uint256"
        }
      ],
      "name": "decreaseApproval",
      "outputs": [
        {
          "name": "",
          "type": "bool"
        }
      ],
      "payable": false,
      "stateMutability": "nonpayable",
      "type": "function"
    },
    {
      "constant": false,
      "inputs": [],
      "name": "unfreeze",
      "outputs": [],
      "payable": false,
      "stateMutability": "nonpayable",
      "type": "function"
    },
    {
      "constant": true,
      "inputs": [],
      "name": "advisorsWallet",
      "outputs": [
        {
          "name": "",
          "type": "address"
        }
      ],
      "payable": false,
      "stateMutability": "view",
      "type": "function"
    },
    {
      "constant": true,
      "inputs": [
        {
          "name": "_owner",
          "type": "address"
        }
      ],
      "name": "balanceOf",
      "outputs": [
        {
          "name": "balance",
          "type": "uint256"
        }
      ],
      "payable": false,
      "stateMutability": "view",
      "type": "function"
    },
    {
      "constant": false,
      "inputs": [],
      "name": "finishMinting",
      "outputs": [
        {
          "name": "",
          "type": "bool"
        }
      ],
      "payable": false,
      "stateMutability": "nonpayable",
      "type": "function"
    },
    {
      "constant": false,
      "inputs": [],
      "name": "unlockAdvisorTokens",
      "outputs": [],
      "payable": false,
      "stateMutability": "nonpayable",
      "type": "function"
    },
    {
      "constant": true,
      "inputs": [],
      "name": "owner",
      "outputs": [
        {
          "name": "",
          "type": "address"
        }
      ],
      "payable": false,
      "stateMutability": "view",
      "type": "function"
    },
    {
      "constant": false,
      "inputs": [],
      "name": "unlockTeamAndReserveTokens",
      "outputs": [],
      "payable": false,
      "stateMutability": "nonpayable",
      "type": "function"
    },
    {
      "constant": true,
      "inputs": [],
      "name": "symbol",
      "outputs": [
        {
          "name": "",
          "type": "string"
        }
      ],
      "payable": false,
      "stateMutability": "view",
      "type": "function"
    },
    {
      "constant": false,
      "inputs": [
        {
          "name": "_value",
          "type": "uint256"
        }
      ],
      "name": "mintAdvisorsTokens",
      "outputs": [],
      "payable": false,
      "stateMutability": "nonpayable",
      "type": "function"
    },
    {
      "constant": false,
      "inputs": [],
      "name": "finalise",
      "outputs": [],
      "payable": false,
      "stateMutability": "nonpayable",
      "type": "function"
    },
    {
      "constant": false,
      "inputs": [
        {
          "name": "_to",
          "type": "address"
        },
        {
          "name": "_value",
          "type": "uint256"
        }
      ],
      "name": "transfer",
      "outputs": [
        {
          "name": "",
          "type": "bool"
        }
      ],
      "payable": false,
      "stateMutability": "nonpayable",
      "type": "function"
    },
    {
      "constant": true,
      "inputs": [],
      "name": "reserveUnlockTime",
      "outputs": [
        {
          "name": "",
          "type": "uint256"
        }
      ],
      "payable": false,
      "stateMutability": "view",
      "type": "function"
    },
    {
      "constant": true,
      "inputs": [],
      "name": "locked",
      "outputs": [
        {
          "name": "",
          "type": "bool"
        }
      ],
      "payable": false,
      "stateMutability": "view",
      "type": "function"
    },
    {
      "constant": true,
      "inputs": [],
      "name": "reserveWallet",
      "outputs": [
        {
          "name": "",
          "type": "address"
        }
      ],
      "payable": false,
      "stateMutability": "view",
      "type": "function"
    },
    {
      "constant": false,
      "inputs": [
        {
          "name": "_spender",
          "type": "address"
        },
        {
          "name": "_addedValue",
          "type": "uint256"
        }
      ],
      "name": "increaseApproval",
      "outputs": [
        {
          "name": "",
          "type": "bool"
        }
      ],
      "payable": false,
      "stateMutability": "nonpayable",
      "type": "function"
    },
    {
      "constant": true,
      "inputs": [],
      "name": "unfreezeTime",
      "outputs": [
        {
          "name": "",
          "type": "uint256"
        }
      ],
      "payable": false,
      "stateMutability": "view",
      "type": "function"
    },
    {
      "constant": true,
      "inputs": [],
      "name": "previousTokenTransfer",
      "outputs": [
        {
          "name": "",
          "type": "uint256"
        }
      ],
      "payable": false,
      "stateMutability": "view",
      "type": "function"
    },
    {
      "constant": true,
      "inputs": [
        {
          "name": "_owner",
          "type": "address"
        },
        {
          "name": "_spender",
          "type": "address"
        }
      ],
      "name": "allowance",
      "outputs": [
        {
          "name": "",
          "type": "uint256"
        }
      ],
      "payable": false,
      "stateMutability": "view",
      "type": "function"
    },
    {
      "constant": false,
      "inputs": [
        {
          "name": "newOwner",
          "type": "address"
        }
      ],
      "name": "transferOwnership",
      "outputs": [],
      "payable": false,
      "stateMutability": "nonpayable",
      "type": "function"
    },
    {
      "inputs": [
        {
          "name": "_cap",
          "type": "uint256"
        },
        {
          "name": "_yearLockEndTime",
          "type": "uint256"
        },
        {
          "name": "_teamWallet",
          "type": "address"
        },
        {
          "name": "_reserveWallet",
          "type": "address"
        },
        {
          "name": "_advisorsWallet",
          "type": "address"
        }
      ],
      "payable": false,
      "stateMutability": "nonpayable",
      "type": "constructor"
    },
    {
      "anonymous": false,
      "inputs": [
        {
          "indexed": true,
          "name": "to",
          "type": "address"
        },
        {
          "indexed": false,
          "name": "amount",
          "type": "uint256"
        }
      ],
      "name": "MintLocked",
      "type": "event"
    },
    {
      "anonymous": false,
      "inputs": [
        {
          "indexed": true,
          "name": "to",
          "type": "address"
        },
        {
          "indexed": false,
          "name": "amount",
          "type": "uint256"
        }
      ],
      "name": "Mint",
      "type": "event"
    },
    {
      "anonymous": false,
      "inputs": [],
      "name": "MintFinished",
      "type": "event"
    },
    {
      "anonymous": false,
      "inputs": [
        {
          "indexed": true,
          "name": "previousOwner",
          "type": "address"
        },
        {
          "indexed": true,
          "name": "newOwner",
          "type": "address"
        }
      ],
      "name": "OwnershipTransferred",
      "type": "event"
    },
    {
      "anonymous": false,
      "inputs": [
        {
          "indexed": true,
          "name": "owner",
          "type": "address"
        },
        {
          "indexed": true,
          "name": "spender",
          "type": "address"
        },
        {
          "indexed": false,
          "name": "value",
          "type": "uint256"
        }
      ],
      "name": "Approval",
      "type": "event"
    },
    {
      "anonymous": false,
      "inputs": [
        {
          "indexed": true,
          "name": "from",
          "type": "address"
        },
        {
          "indexed": true,
          "name": "to",
          "type": "address"
        },
        {
          "indexed": false,
          "name": "value",
          "type": "uint256"
        }
      ],
      "name": "Transfer",
      "type": "event"
    }
  ],
  "bytecode": "0x60606040526000600360146101000a81548160ff0219169083151502179055506001600c60006101000a81548160ff0219169083151502179055506000600d556000600e60006101000a81548160ff0219169083151502179055506000600e60016101000a81548173ffffffffffffffffffffffffffffffffffffffff021916908373ffffffffffffffffffffffffffffffffffffffff1602179055506000600f5534156100ac57600080fd5b60405160a080613929833981016040528080519060200190919080519060200190919080519060200190919080519060200190919080519060200190919050508433600360006101000a81548173ffffffffffffffffffffffffffffffffffffffff021916908373ffffffffffffffffffffffffffffffffffffffff16021790555060008111151561013d57600080fd5b80600481905550508360058190555082600660006101000a81548173ffffffffffffffffffffffffffffffffffffffff021916908373ffffffffffffffffffffffffffffffffffffffff16021790555081600760006101000a81548173ffffffffffffffffffffffffffffffffffffffff021916908373ffffffffffffffffffffffffffffffffffffffff16021790555080600860006101000a81548173ffffffffffffffffffffffffffffffffffffffff021916908373ffffffffffffffffffffffffffffffffffffffff1602179055505050505050613706806102236000396000f300606060405260043610620001c3576000357c0100000000000000000000000000000000000000000000000000000000900463ffffffff16806305d2035b14620001c857806306fdde0314620001f8578063095ea7b3146200028c57806318160ddd14620002e957806323b872dd1462000315578063288bd8fd1462000391578063313ce56714620003b7578063355274ea14620003e95780633b80927314620004155780633f5cd055146200044557806340c10f19146200049d5780635992704414620004fa5780635c27cdc314620005525780636618846314620005785780636a28f00014620005d55780636b252b4714620005ed57806370a0823114620006455780637d64bcb414620006955780637e8ca5f614620006c55780638da5cb5b14620006dd57806394cddaf1146200073557806395d89b41146200074d578063a1ceb25314620007e1578063a43992631462000807578063a9059cbb146200081f578063b3b89158146200087c578063cf30901214620008a8578063d72b11bd14620008d8578063d73dd6231462000930578063d76dddd3146200098d578063d9dbd1b914620009b9578063dd62ed3e14620009e5578063f2fde38b1462000a54575b600080fd5b3415620001d457600080fd5b620001de62000a90565b604051808215151515815260200191505060405180910390f35b34156200020457600080fd5b6200020e62000aa3565b6040518080602001828103825283818151815260200191508051906020019080838360005b838110156200025057808201518184015260208101905062000233565b50505050905090810190601f1680156200027e5780820380516001836020036101000a031916815260200191505b509250505060405180910390f35b34156200029857600080fd5b620002cf600480803573ffffffffffffffffffffffffffffffffffffffff1690602001909190803590602001909190505062000adc565b604051808215151515815260200191505060405180910390f35b3415620002f557600080fd5b620002ff62000b0f565b6040518082815260200191505060405180910390f35b34156200032157600080fd5b62000377600480803573ffffffffffffffffffffffffffffffffffffffff1690602001909190803573ffffffffffffffffffffffffffffffffffffffff1690602001909190803590602001909190505062000b15565b604051808215151515815260200191505060405180910390f35b34156200039d57600080fd5b620003b5600480803590602001909190505062000b4a565b005b3415620003c357600080fd5b620003cd62000c6d565b604051808260ff1660ff16815260200191505060405180910390f35b3415620003f557600080fd5b620003ff62000c72565b6040518082815260200191505060405180910390f35b34156200042157600080fd5b6200042b62000c78565b604051808215151515815260200191505060405180910390f35b34156200045157600080fd5b6200045b62000c8b565b604051808273ffffffffffffffffffffffffffffffffffffffff1673ffffffffffffffffffffffffffffffffffffffff16815260200191505060405180910390f35b3415620004a957600080fd5b620004e0600480803573ffffffffffffffffffffffffffffffffffffffff1690602001909190803590602001909190505062000cb1565b604051808215151515815260200191505060405180910390f35b34156200050657600080fd5b6200051062000d69565b604051808273ffffffffffffffffffffffffffffffffffffffff1673ffffffffffffffffffffffffffffffffffffffff16815260200191505060405180910390f35b34156200055e57600080fd5b62000576600480803590602001909190505062000d8f565b005b34156200058457600080fd5b620005bb600480803573ffffffffffffffffffffffffffffffffffffffff1690602001909190803590602001909190505062000eb2565b604051808215151515815260200191505060405180910390f35b3415620005e157600080fd5b620005eb62000ee5565b005b3415620005f957600080fd5b6200060362000f26565b604051808273ffffffffffffffffffffffffffffffffffffffff1673ffffffffffffffffffffffffffffffffffffffff16815260200191505060405180910390f35b34156200065157600080fd5b6200067f600480803573ffffffffffffffffffffffffffffffffffffffff1690602001909190505062000f4c565b6040518082815260200191505060405180910390f35b3415620006a157600080fd5b620006ab62000f95565b604051808215151515815260200191505060405180910390f35b3415620006d157600080fd5b620006db6200105f565b005b3415620006e957600080fd5b620006f36200116e565b604051808273ffffffffffffffffffffffffffffffffffffffff1673ffffffffffffffffffffffffffffffffffffffff16815260200191505060405180910390f35b34156200074157600080fd5b6200074b62001194565b005b34156200075957600080fd5b62000763620013c7565b6040518080602001828103825283818151815260200191508051906020019080838360005b83811015620007a557808201518184015260208101905062000788565b50505050905090810190601f168015620007d35780820380516001836020036101000a031916815260200191505b509250505060405180910390f35b3415620007ed57600080fd5b62000805600480803590602001909190505062001400565b005b34156200081357600080fd5b6200081d62001523565b005b34156200082b57600080fd5b62000862600480803573ffffffffffffffffffffffffffffffffffffffff169060200190919080359060200190919050506200175f565b604051808215151515815260200191505060405180910390f35b34156200088857600080fd5b6200089262001792565b6040518082815260200191505060405180910390f35b3415620008b457600080fd5b620008be62001798565b604051808215151515815260200191505060405180910390f35b3415620008e457600080fd5b620008ee620017ab565b604051808273ffffffffffffffffffffffffffffffffffffffff1673ffffffffffffffffffffffffffffffffffffffff16815260200191505060405180910390f35b34156200093c57600080fd5b62000973600480803573ffffffffffffffffffffffffffffffffffffffff16906020019091908035906020019091905050620017d1565b604051808215151515815260200191505060405180910390f35b34156200099957600080fd5b620009a362001804565b6040518082815260200191505060405180910390f35b3415620009c557600080fd5b620009cf6200180a565b6040518082815260200191505060405180910390f35b3415620009f157600080fd5b62000a3e600480803573ffffffffffffffffffffffffffffffffffffffff1690602001909190803573ffffffffffffffffffffffffffffffffffffffff1690602001909190505062001810565b6040518082815260200191505060405180910390f35b341562000a6057600080fd5b62000a8e600480803573ffffffffffffffffffffffffffffffffffffffff1690602001909190505062001897565b005b600360149054906101000a900460ff1681565b6040805190810160405280600c81526020017f56657269667920546f6b656e000000000000000000000000000000000000000081525081565b6000600c60009054906101000a900460ff1615151562000afb57600080fd5b62000b078383620019f1565b905092915050565b60005481565b6000600c60009054906101000a900460ff1615151562000b3457600080fd5b62000b4184848462001ae3565b90509392505050565b600360009054906101000a900473ffffffffffffffffffffffffffffffffffffffff1673ffffffffffffffffffffffffffffffffffffffff163373ffffffffffffffffffffffffffffffffffffffff1614151562000ba757600080fd5b600360149054906101000a900460ff1615151562000bc457600080fd5b6000600a5414151562000bd657600080fd5b80600a8190555062000bf48160005462001eab90919063ffffffff16565b600081905550600760009054906101000a900473ffffffffffffffffffffffffffffffffffffffff1673ffffffffffffffffffffffffffffffffffffffff167fd5affc481b89c8cf112cd1da804a20132c3dc51285767f0e5649cc7dcbc02d08826040518082815260200191505060405180910390a250565b601281565b60045481565b600e60009054906101000a900460ff1681565b600e60019054906101000a900473ffffffffffffffffffffffffffffffffffffffff1681565b6000600360009054906101000a900473ffffffffffffffffffffffffffffffffffffffff1673ffffffffffffffffffffffffffffffffffffffff163373ffffffffffffffffffffffffffffffffffffffff1614151562000d1057600080fd5b600360149054906101000a900460ff1615151562000d2d57600080fd5b60045462000d478360005462001eab90919063ffffffff16565b1115151562000d5557600080fd5b62000d61838362001eca565b905092915050565b600660009054906101000a900473ffffffffffffffffffffffffffffffffffffffff1681565b600360009054906101000a900473ffffffffffffffffffffffffffffffffffffffff1673ffffffffffffffffffffffffffffffffffffffff163373ffffffffffffffffffffffffffffffffffffffff1614151562000dec57600080fd5b600360149054906101000a900460ff1615151562000e0957600080fd5b600060095414151562000e1b57600080fd5b8060098190555062000e398160005462001eab90919063ffffffff16565b600081905550600660009054906101000a900473ffffffffffffffffffffffffffffffffffffffff1673ffffffffffffffffffffffffffffffffffffffff167fd5affc481b89c8cf112cd1da804a20132c3dc51285767f0e5649cc7dcbc02d08826040518082815260200191505060405180910390a250565b6000600c60009054906101000a900460ff1615151562000ed157600080fd5b62000edd8383620020b8565b905092915050565b6000600d5411151562000ef757600080fd5b600d54421015151562000f0957600080fd5b6000600c60006101000a81548160ff021916908315150217905550565b600860009054906101000a900473ffffffffffffffffffffffffffffffffffffffff1681565b6000600160008373ffffffffffffffffffffffffffffffffffffffff1673ffffffffffffffffffffffffffffffffffffffff168152602001908152602001600020549050919050565b6000600360009054906101000a900473ffffffffffffffffffffffffffffffffffffffff1673ffffffffffffffffffffffffffffffffffffffff163373ffffffffffffffffffffffffffffffffffffffff1614151562000ff457600080fd5b600360149054906101000a900460ff161515156200101157600080fd5b6001600360146101000a81548160ff0219169083151502179055507fae5184fba832cb2b1f702aca6117b8d265eaf03ad33eb133f19dde0f5920fa0860405160405180910390a16001905090565b600c60009054906101000a900460ff161515156200107c57600080fd5b62278d00600f540142101515156200109357600080fd5b600e60019054906101000a900473ffffffffffffffffffffffffffffffffffffffff1673ffffffffffffffffffffffffffffffffffffffff166319165587306040518263ffffffff167c0100000000000000000000000000000000000000000000000000000000028152600401808273ffffffffffffffffffffffffffffffffffffffff1673ffffffffffffffffffffffffffffffffffffffff168152602001915050600060405180830381600087803b15156200115057600080fd5b6102c65a03f115156200116257600080fd5b50505042600f81905550565b600360009054906101000a900473ffffffffffffffffffffffffffffffffffffffff1681565b600c60009054906101000a900460ff16151515620011b157600080fd5b6005544210151515620011c357600080fd5b600e60009054906101000a900460ff16151515620011e057600080fd5b6200125860095460016000600660009054906101000a900473ffffffffffffffffffffffffffffffffffffffff1673ffffffffffffffffffffffffffffffffffffffff1673ffffffffffffffffffffffffffffffffffffffff1681526020019081526020016000205462001eab90919063ffffffff16565b60016000600660009054906101000a900473ffffffffffffffffffffffffffffffffffffffff1673ffffffffffffffffffffffffffffffffffffffff1673ffffffffffffffffffffffffffffffffffffffff1681526020019081526020016000208190555062001335600a5460016000600760009054906101000a900473ffffffffffffffffffffffffffffffffffffffff1673ffffffffffffffffffffffffffffffffffffffff1673ffffffffffffffffffffffffffffffffffffffff1681526020019081526020016000205462001eab90919063ffffffff16565b60016000600760009054906101000a900473ffffffffffffffffffffffffffffffffffffffff1673ffffffffffffffffffffffffffffffffffffffff1673ffffffffffffffffffffffffffffffffffffffff1681526020019081526020016000208190555060006009819055506000600a819055506001600e60006101000a81548160ff021916908315150217905550565b6040805190810160405280600481526020017f435245440000000000000000000000000000000000000000000000000000000081525081565b600360009054906101000a900473ffffffffffffffffffffffffffffffffffffffff1673ffffffffffffffffffffffffffffffffffffffff163373ffffffffffffffffffffffffffffffffffffffff161415156200145d57600080fd5b600360149054906101000a900460ff161515156200147a57600080fd5b6000600b541415156200148c57600080fd5b80600b81905550620014aa8160005462001eab90919063ffffffff16565b600081905550600860009054906101000a900473ffffffffffffffffffffffffffffffffffffffff1673ffffffffffffffffffffffffffffffffffffffff167fd5affc481b89c8cf112cd1da804a20132c3dc51285767f0e5649cc7dcbc02d08826040518082815260200191505060405180910390a250565b600360009054906101000a900473ffffffffffffffffffffffffffffffffffffffff1673ffffffffffffffffffffffffffffffffffffffff163373ffffffffffffffffffffffffffffffffffffffff161415156200158057600080fd5b6000600a541115156200159257600080fd5b6000600954111515620015a457600080fd5b6000600b54111515620015b657600080fd5b620015c062000f95565b506000600360006101000a81548173ffffffffffffffffffffffffffffffffffffffff021916908373ffffffffffffffffffffffffffffffffffffffff160217905550600860009054906101000a900473ffffffffffffffffffffffffffffffffffffffff164262794a006303c2670060006200163c6200278f565b808673ffffffffffffffffffffffffffffffffffffffff1673ffffffffffffffffffffffffffffffffffffffff1681526020018581526020018481526020018381526020018215151515815260200195505050505050604051809103906000f0801515620016a957600080fd5b600e60016101000a81548173ffffffffffffffffffffffffffffffffffffffff021916908373ffffffffffffffffffffffffffffffffffffffff160217905550600b5460016000600e60019054906101000a900473ffffffffffffffffffffffffffffffffffffffff1673ffffffffffffffffffffffffffffffffffffffff1673ffffffffffffffffffffffffffffffffffffffff1681526020019081526020016000208190555062093a804201600d81905550565b6000600c60009054906101000a900460ff161515156200177e57600080fd5b6200178a83836200234d565b905092915050565b60055481565b600c60009054906101000a900460ff1681565b600760009054906101000a900473ffffffffffffffffffffffffffffffffffffffff1681565b6000600c60009054906101000a900460ff16151515620017f057600080fd5b620017fc838362002577565b905092915050565b600d5481565b600f5481565b6000600260008473ffffffffffffffffffffffffffffffffffffffff1673ffffffffffffffffffffffffffffffffffffffff16815260200190815260200160002060008373ffffffffffffffffffffffffffffffffffffffff1673ffffffffffffffffffffffffffffffffffffffff16815260200190815260200160002054905092915050565b600360009054906101000a900473ffffffffffffffffffffffffffffffffffffffff1673ffffffffffffffffffffffffffffffffffffffff163373ffffffffffffffffffffffffffffffffffffffff16141515620018f457600080fd5b600073ffffffffffffffffffffffffffffffffffffffff168173ffffffffffffffffffffffffffffffffffffffff16141515156200193157600080fd5b8073ffffffffffffffffffffffffffffffffffffffff16600360009054906101000a900473ffffffffffffffffffffffffffffffffffffffff1673ffffffffffffffffffffffffffffffffffffffff167f8be0079c531659141344cd1fd0a4f28419497f9722a3daafe3b4186f6b6457e060405160405180910390a380600360006101000a81548173ffffffffffffffffffffffffffffffffffffffff021916908373ffffffffffffffffffffffffffffffffffffffff16021790555050565b600081600260003373ffffffffffffffffffffffffffffffffffffffff1673ffffffffffffffffffffffffffffffffffffffff16815260200190815260200160002060008573ffffffffffffffffffffffffffffffffffffffff1673ffffffffffffffffffffffffffffffffffffffff168152602001908152602001600020819055508273ffffffffffffffffffffffffffffffffffffffff163373ffffffffffffffffffffffffffffffffffffffff167f8c5be1e5ebec7d5bd14f71427d1e84f3dd0314c0f7b2291e5b200ac8c7c3b925846040518082815260200191505060405180910390a36001905092915050565b60008073ffffffffffffffffffffffffffffffffffffffff168373ffffffffffffffffffffffffffffffffffffffff161415151562001b2157600080fd5b600160008573ffffffffffffffffffffffffffffffffffffffff1673ffffffffffffffffffffffffffffffffffffffff16815260200190815260200160002054821115151562001b7057600080fd5b600260008573ffffffffffffffffffffffffffffffffffffffff1673ffffffffffffffffffffffffffffffffffffffff16815260200190815260200160002060003373ffffffffffffffffffffffffffffffffffffffff1673ffffffffffffffffffffffffffffffffffffffff16815260200190815260200160002054821115151562001bfc57600080fd5b62001c5082600160008773ffffffffffffffffffffffffffffffffffffffff1673ffffffffffffffffffffffffffffffffffffffff168152602001908152602001600020546200277590919063ffffffff16565b600160008673ffffffffffffffffffffffffffffffffffffffff1673ffffffffffffffffffffffffffffffffffffffff1681526020019081526020016000208190555062001ce782600160008673ffffffffffffffffffffffffffffffffffffffff1673ffffffffffffffffffffffffffffffffffffffff1681526020019081526020016000205462001eab90919063ffffffff16565b600160008573ffffffffffffffffffffffffffffffffffffffff1673ffffffffffffffffffffffffffffffffffffffff1681526020019081526020016000208190555062001dbb82600260008773ffffffffffffffffffffffffffffffffffffffff1673ffffffffffffffffffffffffffffffffffffffff16815260200190815260200160002060003373ffffffffffffffffffffffffffffffffffffffff1673ffffffffffffffffffffffffffffffffffffffff168152602001908152602001600020546200277590919063ffffffff16565b600260008673ffffffffffffffffffffffffffffffffffffffff1673ffffffffffffffffffffffffffffffffffffffff16815260200190815260200160002060003373ffffffffffffffffffffffffffffffffffffffff1673ffffffffffffffffffffffffffffffffffffffff168152602001908152602001600020819055508273ffffffffffffffffffffffffffffffffffffffff168473ffffffffffffffffffffffffffffffffffffffff167fddf252ad1be2c89b69c2b068fc378daa952ba7f163c4a11628f55a4df523b3ef846040518082815260200191505060405180910390a3600190509392505050565b600080828401905083811015151562001ec057fe5b8091505092915050565b6000600360009054906101000a900473ffffffffffffffffffffffffffffffffffffffff1673ffffffffffffffffffffffffffffffffffffffff163373ffffffffffffffffffffffffffffffffffffffff1614151562001f2957600080fd5b600360149054906101000a900460ff1615151562001f4657600080fd5b62001f5d8260005462001eab90919063ffffffff16565b60008190555062001fb782600160008673ffffffffffffffffffffffffffffffffffffffff1673ffffffffffffffffffffffffffffffffffffffff1681526020019081526020016000205462001eab90919063ffffffff16565b600160008573ffffffffffffffffffffffffffffffffffffffff1673ffffffffffffffffffffffffffffffffffffffff168152602001908152602001600020819055508273ffffffffffffffffffffffffffffffffffffffff167f0f6798a560793a54c3bcfe86a93cde1e73087d944c0ea20544137d4121396885836040518082815260200191505060405180910390a28273ffffffffffffffffffffffffffffffffffffffff16600073ffffffffffffffffffffffffffffffffffffffff167fddf252ad1be2c89b69c2b068fc378daa952ba7f163c4a11628f55a4df523b3ef846040518082815260200191505060405180910390a36001905092915050565b600080600260003373ffffffffffffffffffffffffffffffffffffffff1673ffffffffffffffffffffffffffffffffffffffff16815260200190815260200160002060008573ffffffffffffffffffffffffffffffffffffffff1673ffffffffffffffffffffffffffffffffffffffff16815260200190815260200160002054905080831115620021cb576000600260003373ffffffffffffffffffffffffffffffffffffffff1673ffffffffffffffffffffffffffffffffffffffff16815260200190815260200160002060008673ffffffffffffffffffffffffffffffffffffffff1673ffffffffffffffffffffffffffffffffffffffff1681526020019081526020016000208190555062002261565b620021e083826200277590919063ffffffff16565b600260003373ffffffffffffffffffffffffffffffffffffffff1673ffffffffffffffffffffffffffffffffffffffff16815260200190815260200160002060008673ffffffffffffffffffffffffffffffffffffffff1673ffffffffffffffffffffffffffffffffffffffff168152602001908152602001600020819055505b8373ffffffffffffffffffffffffffffffffffffffff163373ffffffffffffffffffffffffffffffffffffffff167f8c5be1e5ebec7d5bd14f71427d1e84f3dd0314c0f7b2291e5b200ac8c7c3b925600260003373ffffffffffffffffffffffffffffffffffffffff1673ffffffffffffffffffffffffffffffffffffffff16815260200190815260200160002060008873ffffffffffffffffffffffffffffffffffffffff1673ffffffffffffffffffffffffffffffffffffffff168152602001908152602001600020546040518082815260200191505060405180910390a3600191505092915050565b60008073ffffffffffffffffffffffffffffffffffffffff168373ffffffffffffffffffffffffffffffffffffffff16141515156200238b57600080fd5b600160003373ffffffffffffffffffffffffffffffffffffffff1673ffffffffffffffffffffffffffffffffffffffff168152602001908152602001600020548211151515620023da57600080fd5b6200242e82600160003373ffffffffffffffffffffffffffffffffffffffff1673ffffffffffffffffffffffffffffffffffffffff168152602001908152602001600020546200277590919063ffffffff16565b600160003373ffffffffffffffffffffffffffffffffffffffff1673ffffffffffffffffffffffffffffffffffffffff16815260200190815260200160002081905550620024c582600160008673ffffffffffffffffffffffffffffffffffffffff1673ffffffffffffffffffffffffffffffffffffffff1681526020019081526020016000205462001eab90919063ffffffff16565b600160008573ffffffffffffffffffffffffffffffffffffffff1673ffffffffffffffffffffffffffffffffffffffff168152602001908152602001600020819055508273ffffffffffffffffffffffffffffffffffffffff163373ffffffffffffffffffffffffffffffffffffffff167fddf252ad1be2c89b69c2b068fc378daa952ba7f163c4a11628f55a4df523b3ef846040518082815260200191505060405180910390a36001905092915050565b60006200260a82600260003373ffffffffffffffffffffffffffffffffffffffff1673ffffffffffffffffffffffffffffffffffffffff16815260200190815260200160002060008673ffffffffffffffffffffffffffffffffffffffff1673ffffffffffffffffffffffffffffffffffffffff1681526020019081526020016000205462001eab90919063ffffffff16565b600260003373ffffffffffffffffffffffffffffffffffffffff1673ffffffffffffffffffffffffffffffffffffffff16815260200190815260200160002060008573ffffffffffffffffffffffffffffffffffffffff1673ffffffffffffffffffffffffffffffffffffffff168152602001908152602001600020819055508273ffffffffffffffffffffffffffffffffffffffff163373ffffffffffffffffffffffffffffffffffffffff167f8c5be1e5ebec7d5bd14f71427d1e84f3dd0314c0f7b2291e5b200ac8c7c3b925600260003373ffffffffffffffffffffffffffffffffffffffff1673ffffffffffffffffffffffffffffffffffffffff16815260200190815260200160002060008773ffffffffffffffffffffffffffffffffffffffff1673ffffffffffffffffffffffffffffffffffffffff168152602001908152602001600020546040518082815260200191505060405180910390a36001905092915050565b60008282111515156200278457fe5b818303905092915050565b604051610f3a80620027a18339019056006060604052341561000f57600080fd5b60405160a080610f3a83398101604052808051906020019091908051906020019091908051906020019091908051906020019091908051906020019091905050336000806101000a81548173ffffffffffffffffffffffffffffffffffffffff021916908373ffffffffffffffffffffffffffffffffffffffff160217905550600073ffffffffffffffffffffffffffffffffffffffff168573ffffffffffffffffffffffffffffffffffffffff16141515156100cb57600080fd5b8183111515156100da57600080fd5b84600160006101000a81548173ffffffffffffffffffffffffffffffffffffffff021916908373ffffffffffffffffffffffffffffffffffffffff16021790555080600560006101000a81548160ff0219169083151502179055508160048190555061015c838561017364010000000002610c27179091906401000000009004565b600281905550836003819055505050505050610191565b600080828401905083811015151561018757fe5b8091505092915050565b610d9a806101a06000396000f3006060604052600436106100c5576000357c0100000000000000000000000000000000000000000000000000000000900463ffffffff1680630fb5a6b4146100ca57806313d033c0146100f35780631726cbc81461011c5780631916558714610169578063384711cc146101a257806338af3eed146101ef57806374a8f10314610244578063872a78101461027d5780638da5cb5b146102aa5780639852595c146102ff578063be9a65551461034c578063f2fde38b14610375578063fa01dc06146103ae575b600080fd5b34156100d557600080fd5b6100dd6103ff565b6040518082815260200191505060405180910390f35b34156100fe57600080fd5b610106610405565b6040518082815260200191505060405180910390f35b341561012757600080fd5b610153600480803573ffffffffffffffffffffffffffffffffffffffff1690602001909190505061040b565b6040518082815260200191505060405180910390f35b341561017457600080fd5b6101a0600480803573ffffffffffffffffffffffffffffffffffffffff1690602001909190505061046e565b005b34156101ad57600080fd5b6101d9600480803573ffffffffffffffffffffffffffffffffffffffff169060200190919050506105a7565b6040518082815260200191505060405180910390f35b34156101fa57600080fd5b610202610793565b604051808273ffffffffffffffffffffffffffffffffffffffff1673ffffffffffffffffffffffffffffffffffffffff16815260200191505060405180910390f35b341561024f57600080fd5b61027b600480803573ffffffffffffffffffffffffffffffffffffffff169060200190919050506107b9565b005b341561028857600080fd5b610290610a43565b604051808215151515815260200191505060405180910390f35b34156102b557600080fd5b6102bd610a56565b604051808273ffffffffffffffffffffffffffffffffffffffff1673ffffffffffffffffffffffffffffffffffffffff16815260200191505060405180910390f35b341561030a57600080fd5b610336600480803573ffffffffffffffffffffffffffffffffffffffff16906020019091905050610a7b565b6040518082815260200191505060405180910390f35b341561035757600080fd5b61035f610a93565b6040518082815260200191505060405180910390f35b341561038057600080fd5b6103ac600480803573ffffffffffffffffffffffffffffffffffffffff16906020019091905050610a99565b005b34156103b957600080fd5b6103e5600480803573ffffffffffffffffffffffffffffffffffffffff16906020019091905050610bee565b604051808215151515815260200191505060405180910390f35b60045481565b60025481565b6000610467600660008473ffffffffffffffffffffffffffffffffffffffff1673ffffffffffffffffffffffffffffffffffffffff16815260200190815260200160002054610459846105a7565b610c0e90919063ffffffff16565b9050919050565b60006104798261040b565b905060008111151561048a57600080fd5b6104dc81600660008573ffffffffffffffffffffffffffffffffffffffff1673ffffffffffffffffffffffffffffffffffffffff16815260200190815260200160002054610c2790919063ffffffff16565b600660008473ffffffffffffffffffffffffffffffffffffffff1673ffffffffffffffffffffffffffffffffffffffff1681526020019081526020016000208190555061056c600160009054906101000a900473ffffffffffffffffffffffffffffffffffffffff16828473ffffffffffffffffffffffffffffffffffffffff16610c459092919063ffffffff16565b7ffb81f9b30d73d830c3544b34d827c08142579ee75710b490bab0b3995468c565816040518082815260200191505060405180910390a15050565b60008060008373ffffffffffffffffffffffffffffffffffffffff166370a08231306000604051602001526040518263ffffffff167c0100000000000000000000000000000000000000000000000000000000028152600401808273ffffffffffffffffffffffffffffffffffffffff1673ffffffffffffffffffffffffffffffffffffffff168152602001915050602060405180830381600087803b151561064f57600080fd5b6102c65a03f1151561066057600080fd5b5050506040518051905091506106be600660008673ffffffffffffffffffffffffffffffffffffffff1673ffffffffffffffffffffffffffffffffffffffff1681526020019081526020016000205483610c2790919063ffffffff16565b90506002544210156106d3576000925061078c565b6106ea600454600354610c2790919063ffffffff16565b421015806107415750600760008573ffffffffffffffffffffffffffffffffffffffff1673ffffffffffffffffffffffffffffffffffffffff16815260200190815260200160002060009054906101000a900460ff165b1561074e5780925061078c565b61078960045461077b61076c60035442610c0e90919063ffffffff16565b84610d1890919063ffffffff16565b610d5390919063ffffffff16565b92505b5050919050565b600160009054906101000a900473ffffffffffffffffffffffffffffffffffffffff1681565b60008060008060009054906101000a900473ffffffffffffffffffffffffffffffffffffffff1673ffffffffffffffffffffffffffffffffffffffff163373ffffffffffffffffffffffffffffffffffffffff1614151561081957600080fd5b600560009054906101000a900460ff16151561083457600080fd5b600760008573ffffffffffffffffffffffffffffffffffffffff1673ffffffffffffffffffffffffffffffffffffffff16815260200190815260200160002060009054906101000a900460ff1615151561088d57600080fd5b8373ffffffffffffffffffffffffffffffffffffffff166370a08231306000604051602001526040518263ffffffff167c0100000000000000000000000000000000000000000000000000000000028152600401808273ffffffffffffffffffffffffffffffffffffffff1673ffffffffffffffffffffffffffffffffffffffff168152602001915050602060405180830381600087803b151561093057600080fd5b6102c65a03f1151561094157600080fd5b5050506040518051905092506109568461040b565b915061096b8284610c0e90919063ffffffff16565b90506001600760008673ffffffffffffffffffffffffffffffffffffffff1673ffffffffffffffffffffffffffffffffffffffff16815260200190815260200160002060006101000a81548160ff021916908315150217905550610a116000809054906101000a900473ffffffffffffffffffffffffffffffffffffffff16828673ffffffffffffffffffffffffffffffffffffffff16610c459092919063ffffffff16565b7f44825a4b2df8acb19ce4e1afba9aa850c8b65cdb7942e2078f27d0b0960efee660405160405180910390a150505050565b600560009054906101000a900460ff1681565b6000809054906101000a900473ffffffffffffffffffffffffffffffffffffffff1681565b60066020528060005260406000206000915090505481565b60035481565b6000809054906101000a900473ffffffffffffffffffffffffffffffffffffffff1673ffffffffffffffffffffffffffffffffffffffff163373ffffffffffffffffffffffffffffffffffffffff16141515610af457600080fd5b600073ffffffffffffffffffffffffffffffffffffffff168173ffffffffffffffffffffffffffffffffffffffff1614151515610b3057600080fd5b8073ffffffffffffffffffffffffffffffffffffffff166000809054906101000a900473ffffffffffffffffffffffffffffffffffffffff1673ffffffffffffffffffffffffffffffffffffffff167f8be0079c531659141344cd1fd0a4f28419497f9722a3daafe3b4186f6b6457e060405160405180910390a3806000806101000a81548173ffffffffffffffffffffffffffffffffffffffff021916908373ffffffffffffffffffffffffffffffffffffffff16021790555050565b60076020528060005260406000206000915054906101000a900460ff1681565b6000828211151515610c1c57fe5b818303905092915050565b6000808284019050838110151515610c3b57fe5b8091505092915050565b8273ffffffffffffffffffffffffffffffffffffffff1663a9059cbb83836000604051602001526040518363ffffffff167c0100000000000000000000000000000000000000000000000000000000028152600401808373ffffffffffffffffffffffffffffffffffffffff1673ffffffffffffffffffffffffffffffffffffffff16815260200182815260200192505050602060405180830381600087803b1515610cf057600080fd5b6102c65a03f11515610d0157600080fd5b505050604051805190501515610d1357fe5b505050565b6000806000841415610d2d5760009150610d4c565b8284029050828482811515610d3e57fe5b04141515610d4857fe5b8091505b5092915050565b6000808284811515610d6157fe5b04905080915050929150505600a165627a7a72305820b17443f57983af05906b284f2a0ddf3f69645658d05a0b66850942114af98ff00029a165627a7a723058204ab5d5d64f3863d04e7af5b8a02afed46b96585f5569eb17e2709e7923c1e8910029",
  "source": "pragma solidity ^0.4.18;\n\n\nimport 'zeppelin-solidity/contracts/token/CappedToken.sol';\nimport 'zeppelin-solidity/contracts/ownership/Ownable.sol';\nimport 'zeppelin-solidity/contracts/token/TokenVesting.sol';\n\n\ncontract CREDToken is CappedToken {\n    using SafeMath for uint256;\n\n    /**\n     * Constant fields\n     */\n\n    string public constant name = \"Verify Token\";\n    uint8 public constant decimals = 18;\n    string public constant symbol = \"CRED\";\n\n    /**\n     * Immutable state variables\n     */\n\n    // Time when team and reserved tokens are unlocked\n    uint256 public reserveUnlockTime;\n\n    address public teamWallet;\n    address public reserveWallet;\n    address public advisorsWallet;\n\n    /**\n     * State variables\n     */\n\n    uint256 teamLocked;\n    uint256 reserveLocked;\n    uint256 advisorsLocked;\n\n    // Are the tokens non-transferrable?\n    bool public locked = true;\n\n    // Phase information for slow-release tokens.\n    uint256 public unfreezeTime = 0;\n\n    bool public unlockedReserveAndTeamFunds = false;\n\n    TokenVesting public advisorsVesting = TokenVesting(address(0));\n    uint256 public previousTokenTransfer = 0;\n    /**\n     * Events\n     */\n\n    event MintLocked(address indexed to, uint256 amount);\n\n    /**\n     * Modifiers\n     */\n\n    // Tokens must not be locked.\n    modifier whenLiquid {\n        require(!locked);\n        _;\n    }\n\n    modifier mintLockedOnlyOnce {\n        require(advisorsLocked == 0);\n        _;\n    }\n\n    modifier afterReserveUnlockTime {\n        require(now >= reserveUnlockTime);\n        _;\n    }\n\n    modifier unlockReserveAndTeamOnce {\n        require(!unlockedReserveAndTeamFunds);\n        _;\n    }\n\n    /**\n     * Constructor\n     */\n    function CREDToken(\n        uint256 _cap,\n        uint256 _yearLockEndTime,\n        address _teamWallet,\n        address _reserveWallet,\n        address _advisorsWallet\n    )\n    CappedToken(_cap)\n    public\n    {\n        reserveUnlockTime = _yearLockEndTime;\n        teamWallet = _teamWallet;\n        reserveWallet = _reserveWallet;\n        advisorsWallet = _advisorsWallet;\n    }\n\n    // Mint a certain number of tokens that are locked up.\n    // _value has to be bounded not to overflow.\n    function mintAdvisorsTokens(uint256 _value) public onlyOwner canMint {\n        require(advisorsLocked == 0);\n        advisorsLocked = _value;\n        totalSupply = totalSupply.add(_value);\n        MintLocked(advisorsWallet, _value);\n    }\n\n    function mintTeamTokens(uint256 _value) public onlyOwner canMint {\n        require(teamLocked == 0);\n        teamLocked = _value;\n        totalSupply = totalSupply.add(_value);\n        MintLocked(teamWallet, _value);\n    }\n\n    function mintReserveTokens(uint256 _value) public onlyOwner canMint {\n        require(reserveLocked == 0);\n        reserveLocked = _value;\n        totalSupply = totalSupply.add(_value);\n        MintLocked(reserveWallet, _value);\n    }\n\n\n    /// Finalise any minting operations. Resets the owner and causes normal tokens\n    /// to be frozen. Also begins the countdown for locked-up tokens.\n    function finalise() public onlyOwner {\n        require(reserveLocked > 0);\n        require(teamLocked > 0);\n        require(advisorsLocked > 0);\n        finishMinting();\n        owner = 0;\n        advisorsVesting = new TokenVesting(advisorsWallet, now, 92 days, 2 years, false);\n        balances[advisorsVesting] = advisorsLocked;\n        unfreezeTime = now + 1 weeks;\n    }\n\n\n    // Causes tokens to be liquid 1 week after the tokensale is completed\n    function unfreeze() public {\n        require(unfreezeTime > 0);\n        require(now >= unfreezeTime);\n        locked = false;\n    }\n\n\n    /// Unlock any now freeable tokens that are locked up for account `_who`.\n    function unlockTeamAndReserveTokens() public whenLiquid afterReserveUnlockTime unlockReserveAndTeamOnce{\n        balances[teamWallet] = balances[teamWallet].add(teamLocked);\n        balances[reserveWallet] = balances[reserveWallet].add(reserveLocked);\n        teamLocked = 0;\n        reserveLocked = 0;\n        unlockedReserveAndTeamFunds = true;\n    }\n\n    function unlockAdvisorTokens() public whenLiquid {\n        require(now >= previousTokenTransfer + 30 days);\n        advisorsVesting.release(this);\n        previousTokenTransfer = now;\n    }\n\n\n    /**\n     * Methods overriding some OpenZeppelin functions to prevent calling them when token is not liquid.\n     */\n\n    function transfer(address _to, uint256 _value) public whenLiquid returns (bool) {\n        return super.transfer(_to, _value);\n    }\n\n    function transferFrom(address _from, address _to, uint256 _value) public whenLiquid returns (bool) {\n        return super.transferFrom(_from, _to, _value);\n    }\n\n    function approve(address _spender, uint256 _value) public whenLiquid returns (bool) {\n        return super.approve(_spender, _value);\n    }\n\n    function increaseApproval(address _spender, uint256 _addedValue) public whenLiquid returns (bool) {\n        return super.increaseApproval(_spender, _addedValue);\n    }\n\n    function decreaseApproval(address _spender, uint256 _subtractedValue) public whenLiquid returns (bool) {\n        return super.decreaseApproval(_spender, _subtractedValue);\n    }\n\n}\n",
  "sourcePath": "/Users/derain/Projects/smartcont/contracts/CREDToken.sol",
  "compiler": {
    "name": "solc",
    "version": "0.4.18+commit.9cf6e910.Emscripten.clang"
  },
  "schemaVersion": "1.0.1",
  "updatedAt": "2017-12-04T18:46:39.060Z"
}