{
  "contractName": "Tokensale",
  "abi": [
    {
      "constant": true,
      "inputs": [],
      "name": "MISCELLANEOUS_TOKENS_SUPPLY",
      "outputs": [
        {
          "name": "",
          "type": "uint256"
        }
      ],
      "payable": false,
      "stateMutability": "view",
      "type": "function"
    },
    {
      "constant": true,
      "inputs": [],
      "name": "ADVISORS_TOKENS_SUPPLY",
      "outputs": [
        {
          "name": "",
          "type": "uint256"
        }
      ],
      "payable": false,
      "stateMutability": "view",
      "type": "function"
    },
    {
      "constant": true,
      "inputs": [
        {
          "name": "",
          "type": "address"
        }
      ],
      "name": "presaleLimit",
      "outputs": [
        {
          "name": "",
          "type": "uint256"
        }
      ],
      "payable": false,
      "stateMutability": "view",
      "type": "function"
    },
    {
      "constant": true,
      "inputs": [],
      "name": "rate",
      "outputs": [
        {
          "name": "",
          "type": "uint256"
        }
      ],
      "payable": false,
      "stateMutability": "view",
      "type": "function"
    },
    {
      "constant": true,
      "inputs": [],
      "name": "TEAM_TOKENS_SUPPLY",
      "outputs": [
        {
          "name": "",
          "type": "uint256"
        }
      ],
      "payable": false,
      "stateMutability": "view",
      "type": "function"
    },
    {
      "constant": true,
      "inputs": [],
      "name": "endTime",
      "outputs": [
        {
          "name": "",
          "type": "uint256"
        }
      ],
      "payable": false,
      "stateMutability": "view",
      "type": "function"
    },
    {
      "constant": true,
      "inputs": [],
      "name": "MAX_SUPPLY",
      "outputs": [
        {
          "name": "",
          "type": "uint256"
        }
      ],
      "payable": false,
      "stateMutability": "view",
      "type": "function"
    },
    {
      "constant": true,
      "inputs": [],
      "name": "cap",
      "outputs": [
        {
          "name": "",
          "type": "uint256"
        }
      ],
      "payable": false,
      "stateMutability": "view",
      "type": "function"
    },
    {
      "constant": false,
      "inputs": [],
      "name": "unpause",
      "outputs": [],
      "payable": false,
      "stateMutability": "nonpayable",
      "type": "function"
    },
    {
      "constant": true,
      "inputs": [],
      "name": "weiRaised",
      "outputs": [
        {
          "name": "",
          "type": "uint256"
        }
      ],
      "payable": false,
      "stateMutability": "view",
      "type": "function"
    },
    {
      "constant": true,
      "inputs": [],
      "name": "wallet",
      "outputs": [
        {
          "name": "",
          "type": "address"
        }
      ],
      "payable": false,
      "stateMutability": "view",
      "type": "function"
    },
    {
      "constant": true,
      "inputs": [],
      "name": "paused",
      "outputs": [
        {
          "name": "",
          "type": "bool"
        }
      ],
      "payable": false,
      "stateMutability": "view",
      "type": "function"
    },
    {
      "constant": true,
      "inputs": [],
      "name": "startTime",
      "outputs": [
        {
          "name": "",
          "type": "uint256"
        }
      ],
      "payable": false,
      "stateMutability": "view",
      "type": "function"
    },
    {
      "constant": false,
      "inputs": [],
      "name": "pause",
      "outputs": [],
      "payable": false,
      "stateMutability": "nonpayable",
      "type": "function"
    },
    {
      "constant": true,
      "inputs": [],
      "name": "owner",
      "outputs": [
        {
          "name": "",
          "type": "address"
        }
      ],
      "payable": false,
      "stateMutability": "view",
      "type": "function"
    },
    {
      "constant": true,
      "inputs": [],
      "name": "totalSold",
      "outputs": [
        {
          "name": "",
          "type": "uint256"
        }
      ],
      "payable": false,
      "stateMutability": "view",
      "type": "function"
    },
    {
      "constant": true,
      "inputs": [],
      "name": "soldDuringTokensale",
      "outputs": [
        {
          "name": "",
          "type": "uint256"
        }
      ],
      "payable": false,
      "stateMutability": "view",
      "type": "function"
    },
    {
      "constant": true,
      "inputs": [],
      "name": "SALE_TOKENS_SUPPLY",
      "outputs": [
        {
          "name": "",
          "type": "uint256"
        }
      ],
      "payable": false,
      "stateMutability": "view",
      "type": "function"
    },
    {
      "constant": false,
      "inputs": [],
      "name": "finalise",
      "outputs": [],
      "payable": false,
      "stateMutability": "nonpayable",
      "type": "function"
    },
    {
      "constant": true,
      "inputs": [],
      "name": "presaleStartTime",
      "outputs": [
        {
          "name": "",
          "type": "uint256"
        }
      ],
      "payable": false,
      "stateMutability": "view",
      "type": "function"
    },
    {
      "constant": false,
      "inputs": [
        {
          "name": "_cap",
          "type": "uint256"
        }
      ],
      "name": "setHardCap",
      "outputs": [],
      "payable": false,
      "stateMutability": "nonpayable",
      "type": "function"
    },
    {
      "constant": true,
      "inputs": [],
      "name": "RESERVE_TOKENS_SUPPLY",
      "outputs": [
        {
          "name": "",
          "type": "uint256"
        }
      ],
      "payable": false,
      "stateMutability": "view",
      "type": "function"
    },
    {
      "constant": false,
      "inputs": [
        {
          "name": "_wallets",
          "type": "address[]"
        },
        {
          "name": "_weiLimit",
          "type": "uint256[]"
        }
      ],
      "name": "addPresaleWallets",
      "outputs": [],
      "payable": false,
      "stateMutability": "nonpayable",
      "type": "function"
    },
    {
      "constant": true,
      "inputs": [],
      "name": "INVESTMENT_FUND_TOKENS_SUPPLY",
      "outputs": [
        {
          "name": "",
          "type": "uint256"
        }
      ],
      "payable": false,
      "stateMutability": "view",
      "type": "function"
    },
    {
      "constant": false,
      "inputs": [
        {
          "name": "beneficiary",
          "type": "address"
        }
      ],
      "name": "buyTokens",
      "outputs": [],
      "payable": true,
      "stateMutability": "payable",
      "type": "function"
    },
    {
      "constant": true,
      "inputs": [],
      "name": "hasEnded",
      "outputs": [
        {
          "name": "",
          "type": "bool"
        }
      ],
      "payable": false,
      "stateMutability": "view",
      "type": "function"
    },
    {
      "constant": false,
      "inputs": [
        {
          "name": "newOwner",
          "type": "address"
        }
      ],
      "name": "transferOwnership",
      "outputs": [],
      "payable": false,
      "stateMutability": "nonpayable",
      "type": "function"
    },
    {
      "constant": true,
      "inputs": [],
      "name": "token",
      "outputs": [
        {
          "name": "",
          "type": "address"
        }
      ],
      "payable": false,
      "stateMutability": "view",
      "type": "function"
    },
    {
      "inputs": [
        {
          "name": "_presaleStartTime",
          "type": "uint256"
        },
        {
          "name": "_startTime",
          "type": "uint256"
        },
        {
          "name": "_hardCap",
          "type": "uint256"
        },
        {
          "name": "_investmentFundWallet",
          "type": "address"
        },
        {
          "name": "_miscellaneousWallet",
          "type": "address"
        },
        {
          "name": "_treasury",
          "type": "address"
        },
        {
          "name": "_teamWallet",
          "type": "address"
        },
        {
          "name": "_reserveWallet",
          "type": "address"
        },
        {
          "name": "_advisorsWallet",
          "type": "address"
        }
      ],
      "payable": false,
      "stateMutability": "nonpayable",
      "type": "constructor"
    },
    {
      "payable": true,
      "stateMutability": "payable",
      "type": "fallback"
    },
    {
      "anonymous": false,
      "inputs": [
        {
          "indexed": true,
          "name": "recipient",
          "type": "address"
        },
        {
          "indexed": false,
          "name": "etherPaid",
          "type": "uint256"
        },
        {
          "indexed": false,
          "name": "tokensSold",
          "type": "uint256"
        }
      ],
      "name": "Prepurchased",
      "type": "event"
    },
    {
      "anonymous": false,
      "inputs": [],
      "name": "Pause",
      "type": "event"
    },
    {
      "anonymous": false,
      "inputs": [],
      "name": "Unpause",
      "type": "event"
    },
    {
      "anonymous": false,
      "inputs": [
        {
          "indexed": true,
          "name": "previousOwner",
          "type": "address"
        },
        {
          "indexed": true,
          "name": "newOwner",
          "type": "address"
        }
      ],
      "name": "OwnershipTransferred",
      "type": "event"
    },
    {
      "anonymous": false,
      "inputs": [
        {
          "indexed": true,
          "name": "purchaser",
          "type": "address"
        },
        {
          "indexed": true,
          "name": "beneficiary",
          "type": "address"
        },
        {
          "indexed": false,
          "name": "value",
          "type": "uint256"
        },
        {
          "indexed": false,
          "name": "amount",
          "type": "uint256"
        }
      ],
      "name": "TokenPurchase",
      "type": "event"
    }
  ],
  "bytecode": "0x60606040526000600760146101000a81548160ff02191690831515021790555034156200002b57600080fd5b60405161012080620055e883398101604052808051906020019091908051906020019091908051906020019091908051906020019091908051906020019091908051906020019091908051906020019091908051906020019091908051906020019091905050868862278d008a01620000c78a6a0933cf755ca7d39f200000620005ae64010000000002620010b2179091906401000000009004565b87428410151515620000d857600080fd5b838310151515620000e857600080fd5b600082111515620000f857600080fd5b600073ffffffffffffffffffffffffffffffffffffffff168173ffffffffffffffffffffffffffffffffffffffff16141515156200013557600080fd5b62000153620005ca6401000000000262001297176401000000009004565b6000806101000a81548173ffffffffffffffffffffffffffffffffffffffff021916908373ffffffffffffffffffffffffffffffffffffffff16021790555083600181905550826002819055508160048190555080600360006101000a81548173ffffffffffffffffffffffffffffffffffffffff021916908373ffffffffffffffffffffffffffffffffffffffff16021790555050505050600081111515620001fc57600080fd5b806006819055505033600760006101000a81548173ffffffffffffffffffffffffffffffffffffffff021916908373ffffffffffffffffffffffffffffffffffffffff16021790555088881115156200025457600080fd5b6a295be96e640669720000006301e13380890184848462000274620007e9565b808681526020018581526020018473ffffffffffffffffffffffffffffffffffffffff1673ffffffffffffffffffffffffffffffffffffffff1681526020018373ffffffffffffffffffffffffffffffffffffffff1673ffffffffffffffffffffffffffffffffffffffff1681526020018273ffffffffffffffffffffffffffffffffffffffff1673ffffffffffffffffffffffffffffffffffffffff16815260200195505050505050604051809103906000f08015156200033557600080fd5b6000806101000a81548173ffffffffffffffffffffffffffffffffffffffff021916908373ffffffffffffffffffffffffffffffffffffffff16021790555088600a819055506200039b8686620005d2640100000000026200129f176401000000009004565b620003b9620007c06401000000000262001089176401000000009004565b73ffffffffffffffffffffffffffffffffffffffff16635c27cdc36a084595161401484a0000006040518263ffffffff167c010000000000000000000000000000000000000000000000000000000002815260040180828152602001915050600060405180830381600087803b15156200043257600080fd5b6102c65a03f115156200044457600080fd5b50505062000465620007c06401000000000262001089176401000000009004565b73ffffffffffffffffffffffffffffffffffffffff1663288bd8fd6a084595161401484a0000006040518263ffffffff167c010000000000000000000000000000000000000000000000000000000002815260040180828152602001915050600060405180830381600087803b1515620004de57600080fd5b6102c65a03f11515620004f057600080fd5b50505062000511620007c06401000000000262001089176401000000009004565b73ffffffffffffffffffffffffffffffffffffffff1663a1ceb2536a048cab98f1671af58000006040518263ffffffff167c010000000000000000000000000000000000000000000000000000000002815260040180828152602001915050600060405180830381600087803b15156200058a57600080fd5b6102c65a03f115156200059c57600080fd5b505050505050505050505050620007fa565b6000808284811515620005bd57fe5b0490508091505092915050565b600080905090565b6000809054906101000a900473ffffffffffffffffffffffffffffffffffffffff1673ffffffffffffffffffffffffffffffffffffffff166340c10f19836a08af7623fb67bf1a8000006000604051602001526040518363ffffffff167c0100000000000000000000000000000000000000000000000000000000028152600401808373ffffffffffffffffffffffffffffffffffffffff1673ffffffffffffffffffffffffffffffffffffffff16815260200182815260200192505050602060405180830381600087803b1515620006aa57600080fd5b6102c65a03f11515620006bc57600080fd5b50505060405180519050506000809054906101000a900473ffffffffffffffffffffffffffffffffffffffff1673ffffffffffffffffffffffffffffffffffffffff166340c10f19826a0260ce0ff28d2b2ee000006000604051602001526040518363ffffffff167c0100000000000000000000000000000000000000000000000000000000028152600401808373ffffffffffffffffffffffffffffffffffffffff1673ffffffffffffffffffffffffffffffffffffffff16815260200182815260200192505050602060405180830381600087803b15156200079f57600080fd5b6102c65a03f11515620007b157600080fd5b50505060405180519050505050565b60008060009054906101000a900473ffffffffffffffffffffffffffffffffffffffff16905090565b6040516139298062001cbf83390190565b6114b5806200080a6000396000f30060606040526004361061016a576000357c0100000000000000000000000000000000000000000000000000000000900463ffffffff1680630f6ea4fc14610175578063114630e11461019e57806314102159146101c75780632c4e722e1461021457806331694d6f1461023d5780633197cbb61461026657806332cb6b0c1461028f578063355274ea146102b85780633f4ba83a146102e15780634042b66f146102f6578063521eb2731461031f5780635c975abb1461037457806378e97925146103a15780638456cb59146103ca5780638da5cb5b146103df5780639106d7ba1461043457806398d78fe21461045d5780639c93a52f14610486578063a4399263146104af578063a82524b2146104c4578063d18d944b146104ed578063d4b572be14610510578063db6bed2214610539578063e5c60d0b146105d3578063ec8ac4d8146105fc578063ecb70fb71461062a578063f2fde38b14610657578063fc0c546a14610690575b610173336106e5565b005b341561018057600080fd5b6101886107c0565b6040518082815260200191505060405180910390f35b34156101a957600080fd5b6101b16107cf565b6040518082815260200191505060405180910390f35b34156101d257600080fd5b6101fe600480803573ffffffffffffffffffffffffffffffffffffffff169060200190919050506107de565b6040518082815260200191505060405180910390f35b341561021f57600080fd5b6102276107f6565b6040518082815260200191505060405180910390f35b341561024857600080fd5b6102506107fc565b6040518082815260200191505060405180910390f35b341561027157600080fd5b61027961080b565b6040518082815260200191505060405180910390f35b341561029a57600080fd5b6102a2610811565b6040518082815260200191505060405180910390f35b34156102c357600080fd5b6102cb610820565b6040518082815260200191505060405180910390f35b34156102ec57600080fd5b6102f4610826565b005b341561030157600080fd5b6103096108e6565b6040518082815260200191505060405180910390f35b341561032a57600080fd5b6103326108ec565b604051808273ffffffffffffffffffffffffffffffffffffffff1673ffffffffffffffffffffffffffffffffffffffff16815260200191505060405180910390f35b341561037f57600080fd5b610387610912565b604051808215151515815260200191505060405180910390f35b34156103ac57600080fd5b6103b4610925565b6040518082815260200191505060405180910390f35b34156103d557600080fd5b6103dd61092b565b005b34156103ea57600080fd5b6103f26109ec565b604051808273ffffffffffffffffffffffffffffffffffffffff1673ffffffffffffffffffffffffffffffffffffffff16815260200191505060405180910390f35b341561043f57600080fd5b610447610a12565b6040518082815260200191505060405180910390f35b341561046857600080fd5b610470610a18565b6040518082815260200191505060405180910390f35b341561049157600080fd5b610499610a1e565b6040518082815260200191505060405180910390f35b34156104ba57600080fd5b6104c2610a2d565b005b34156104cf57600080fd5b6104d7610ac0565b6040518082815260200191505060405180910390f35b34156104f857600080fd5b61050e6004808035906020019091905050610ac6565b005b341561051b57600080fd5b610523610b60565b6040518082815260200191505060405180910390f35b341561054457600080fd5b6105d160048080359060200190820180359060200190808060200260200160405190810160405280939291908181526020018383602002808284378201915050505050509190803590602001908201803590602001908080602002602001604051908101604052809392919081815260200183836020028082843782019150505050505091905050610b6f565b005b34156105de57600080fd5b6105e6610c7f565b6040518082815260200191505060405180910390f35b610628600480803573ffffffffffffffffffffffffffffffffffffffff169060200190919050506106e5565b005b341561063557600080fd5b61063d610c8e565b604051808215151515815260200191505060405180910390f35b341561066257600080fd5b61068e600480803573ffffffffffffffffffffffffffffffffffffffff16906020019091905050610cb1565b005b341561069b57600080fd5b6106a3610e09565b604051808273ffffffffffffffffffffffffffffffffffffffff1673ffffffffffffffffffffffffffffffffffffffff16815260200191505060405180910390f35b6106ee81610e2e565b60015442101561078e5761074a34600b60003373ffffffffffffffffffffffffffffffffffffffff1673ffffffffffffffffffffffffffffffffffffffff1681526020019081526020016000205461101790919063ffffffff16565b600b60003373ffffffffffffffffffffffffffffffffffffffff1673ffffffffffffffffffffffffffffffffffffffff168152602001908152602001600020819055505b6107b76107a66004543461103090919063ffffffff16565b60085461106b90919063ffffffff16565b60088190555050565b6a0260ce0ff28d2b2ee0000081565b6a048cab98f1671af580000081565b600b6020528060005260406000206000915090505481565b60045481565b6a084595161401484a00000081565b60025481565b6a295be96e6406697200000081565b60065481565b600760009054906101000a900473ffffffffffffffffffffffffffffffffffffffff1673ffffffffffffffffffffffffffffffffffffffff163373ffffffffffffffffffffffffffffffffffffffff1614151561088257600080fd5b600760149054906101000a900460ff16151561089d57600080fd5b6000600760146101000a81548160ff0219169083151502179055507f7805862f689e2f13df9f062ff482ad3ad112aca9e0847911ed832e158c525b3360405160405180910390a1565b60055481565b600360009054906101000a900473ffffffffffffffffffffffffffffffffffffffff1681565b600760149054906101000a900460ff1681565b60015481565b600760009054906101000a900473ffffffffffffffffffffffffffffffffffffffff1673ffffffffffffffffffffffffffffffffffffffff163373ffffffffffffffffffffffffffffffffffffffff1614151561098757600080fd5b600760149054906101000a900460ff161515156109a357600080fd5b6001600760146101000a81548160ff0219169083151502179055507f6985a02210a168e66602d3235cb6db0e70f92b3ba4d376a33c0f3d9434bff62560405160405180910390a1565b600760009054906101000a900473ffffffffffffffffffffffffffffffffffffffff1681565b60085481565b60095481565b6a0933cf755ca7d39f20000081565b610a35610c8e565b1515610a4057600080fd5b610a48611089565b73ffffffffffffffffffffffffffffffffffffffff1663a43992636040518163ffffffff167c0100000000000000000000000000000000000000000000000000000000028152600401600060405180830381600087803b1515610aaa57600080fd5b6102c65a03f11515610abb57600080fd5b505050565b600a5481565b600760009054906101000a900473ffffffffffffffffffffffffffffffffffffffff1673ffffffffffffffffffffffffffffffffffffffff163373ffffffffffffffffffffffffffffffffffffffff16141515610b2257600080fd5b600a5442101515610b3257600080fd5b80600681905550610b57816a0933cf755ca7d39f2000006110b290919063ffffffff16565b60048190555050565b6a084595161401484a00000081565b6000600760009054906101000a900473ffffffffffffffffffffffffffffffffffffffff1673ffffffffffffffffffffffffffffffffffffffff163373ffffffffffffffffffffffffffffffffffffffff16141515610bcd57600080fd5b60015442101515610bdd57600080fd5b81518351141515610bed57600080fd5b600090505b8251811015610c7a578181815181101515610c0957fe5b90602001906020020151600b60008584815181101515610c2557fe5b9060200190602002015173ffffffffffffffffffffffffffffffffffffffff1673ffffffffffffffffffffffffffffffffffffffff168152602001908152602001600020819055508080600101915050610bf2565b505050565b6a08af7623fb67bf1a80000081565b60008060065460055410159050610ca36110cd565b80610cab5750805b91505090565b600760009054906101000a900473ffffffffffffffffffffffffffffffffffffffff1673ffffffffffffffffffffffffffffffffffffffff163373ffffffffffffffffffffffffffffffffffffffff16141515610d0d57600080fd5b600073ffffffffffffffffffffffffffffffffffffffff168173ffffffffffffffffffffffffffffffffffffffff1614151515610d4957600080fd5b8073ffffffffffffffffffffffffffffffffffffffff16600760009054906101000a900473ffffffffffffffffffffffffffffffffffffffff1673ffffffffffffffffffffffffffffffffffffffff167f8be0079c531659141344cd1fd0a4f28419497f9722a3daafe3b4186f6b6457e060405160405180910390a380600760006101000a81548173ffffffffffffffffffffffffffffffffffffffff021916908373ffffffffffffffffffffffffffffffffffffffff16021790555050565b6000809054906101000a900473ffffffffffffffffffffffffffffffffffffffff1681565b600080600073ffffffffffffffffffffffffffffffffffffffff168373ffffffffffffffffffffffffffffffffffffffff1614151515610e6d57600080fd5b610e756110d9565b1515610e8057600080fd5b349150610e986004548361103090919063ffffffff16565b9050610eaf8260055461106b90919063ffffffff16565b6005819055506000809054906101000a900473ffffffffffffffffffffffffffffffffffffffff1673ffffffffffffffffffffffffffffffffffffffff166340c10f1984836000604051602001526040518363ffffffff167c0100000000000000000000000000000000000000000000000000000000028152600401808373ffffffffffffffffffffffffffffffffffffffff1673ffffffffffffffffffffffffffffffffffffffff16815260200182815260200192505050602060405180830381600087803b1515610f8157600080fd5b6102c65a03f11515610f9257600080fd5b50505060405180519050508273ffffffffffffffffffffffffffffffffffffffff163373ffffffffffffffffffffffffffffffffffffffff167f623b3804fa71d67900d064613da8f94b9617215ee90799290593e1745087ad188484604051808381526020018281526020019250505060405180910390a3611012611113565b505050565b600082821115151561102557fe5b818303905092915050565b60008060008414156110455760009150611064565b828402905082848281151561105657fe5b0414151561106057fe5b8091505b5092915050565b600080828401905083811015151561107f57fe5b8091505092915050565b60008060009054906101000a900473ffffffffffffffffffffffffffffffffffffffff16905090565b60008082848115156110c057fe5b0490508091505092915050565b60006002544211905090565b6000600760149054906101000a900460ff161515156110f757600080fd5b6110ff611177565b8061110e575061110d611186565b5b905090565b600360009054906101000a900473ffffffffffffffffffffffffffffffffffffffff1673ffffffffffffffffffffffffffffffffffffffff166108fc349081150290604051600060405180830381858888f19350505050151561117557600080fd5b565b600061118161122e565b905090565b6000600b60003373ffffffffffffffffffffffffffffffffffffffff1673ffffffffffffffffffffffffffffffffffffffff168152602001908152602001600020543411156111d8576000905061122b565b6006546111f03460055461106b90919063ffffffff16565b11156111ff576000905061122b565b600a54421015611212576000905061122b565b60015442101515611226576000905061122b565b600190505b90565b6000806006546112493460055461106b90919063ffffffff16565b11159050611255611264565b801561125e5750805b91505090565b6000806000600154421015801561127d57506002544211155b9150600034141590508180156112905750805b9250505090565b600080905090565b6000809054906101000a900473ffffffffffffffffffffffffffffffffffffffff1673ffffffffffffffffffffffffffffffffffffffff166340c10f19836a08af7623fb67bf1a8000006000604051602001526040518363ffffffff167c0100000000000000000000000000000000000000000000000000000000028152600401808373ffffffffffffffffffffffffffffffffffffffff1673ffffffffffffffffffffffffffffffffffffffff16815260200182815260200192505050602060405180830381600087803b151561137657600080fd5b6102c65a03f1151561138757600080fd5b50505060405180519050506000809054906101000a900473ffffffffffffffffffffffffffffffffffffffff1673ffffffffffffffffffffffffffffffffffffffff166340c10f19826a0260ce0ff28d2b2ee000006000604051602001526040518363ffffffff167c0100000000000000000000000000000000000000000000000000000000028152600401808373ffffffffffffffffffffffffffffffffffffffff1673ffffffffffffffffffffffffffffffffffffffff16815260200182815260200192505050602060405180830381600087803b151561146957600080fd5b6102c65a03f1151561147a57600080fd5b505050604051805190505050505600a165627a7a72305820f29ca1090faddd6b5f0973f32eec8cfbc79a4f4cd439bd7c90e74791a5173fce002960606040526000600360146101000a81548160ff0219169083151502179055506001600c60006101000a81548160ff0219169083151502179055506000600d556000600e60006101000a81548160ff0219169083151502179055506000600e60016101000a81548173ffffffffffffffffffffffffffffffffffffffff021916908373ffffffffffffffffffffffffffffffffffffffff1602179055506000600f5534156100ac57600080fd5b60405160a080613929833981016040528080519060200190919080519060200190919080519060200190919080519060200190919080519060200190919050508433600360006101000a81548173ffffffffffffffffffffffffffffffffffffffff021916908373ffffffffffffffffffffffffffffffffffffffff16021790555060008111151561013d57600080fd5b80600481905550508360058190555082600660006101000a81548173ffffffffffffffffffffffffffffffffffffffff021916908373ffffffffffffffffffffffffffffffffffffffff16021790555081600760006101000a81548173ffffffffffffffffffffffffffffffffffffffff021916908373ffffffffffffffffffffffffffffffffffffffff16021790555080600860006101000a81548173ffffffffffffffffffffffffffffffffffffffff021916908373ffffffffffffffffffffffffffffffffffffffff1602179055505050505050613706806102236000396000f300606060405260043610620001c3576000357c0100000000000000000000000000000000000000000000000000000000900463ffffffff16806305d2035b14620001c857806306fdde0314620001f8578063095ea7b3146200028c57806318160ddd14620002e957806323b872dd1462000315578063288bd8fd1462000391578063313ce56714620003b7578063355274ea14620003e95780633b80927314620004155780633f5cd055146200044557806340c10f19146200049d5780635992704414620004fa5780635c27cdc314620005525780636618846314620005785780636a28f00014620005d55780636b252b4714620005ed57806370a0823114620006455780637d64bcb414620006955780637e8ca5f614620006c55780638da5cb5b14620006dd57806394cddaf1146200073557806395d89b41146200074d578063a1ceb25314620007e1578063a43992631462000807578063a9059cbb146200081f578063b3b89158146200087c578063cf30901214620008a8578063d72b11bd14620008d8578063d73dd6231462000930578063d76dddd3146200098d578063d9dbd1b914620009b9578063dd62ed3e14620009e5578063f2fde38b1462000a54575b600080fd5b3415620001d457600080fd5b620001de62000a90565b604051808215151515815260200191505060405180910390f35b34156200020457600080fd5b6200020e62000aa3565b6040518080602001828103825283818151815260200191508051906020019080838360005b838110156200025057808201518184015260208101905062000233565b50505050905090810190601f1680156200027e5780820380516001836020036101000a031916815260200191505b509250505060405180910390f35b34156200029857600080fd5b620002cf600480803573ffffffffffffffffffffffffffffffffffffffff1690602001909190803590602001909190505062000adc565b604051808215151515815260200191505060405180910390f35b3415620002f557600080fd5b620002ff62000b0f565b6040518082815260200191505060405180910390f35b34156200032157600080fd5b62000377600480803573ffffffffffffffffffffffffffffffffffffffff1690602001909190803573ffffffffffffffffffffffffffffffffffffffff1690602001909190803590602001909190505062000b15565b604051808215151515815260200191505060405180910390f35b34156200039d57600080fd5b620003b5600480803590602001909190505062000b4a565b005b3415620003c357600080fd5b620003cd62000c6d565b604051808260ff1660ff16815260200191505060405180910390f35b3415620003f557600080fd5b620003ff62000c72565b6040518082815260200191505060405180910390f35b34156200042157600080fd5b6200042b62000c78565b604051808215151515815260200191505060405180910390f35b34156200045157600080fd5b6200045b62000c8b565b604051808273ffffffffffffffffffffffffffffffffffffffff1673ffffffffffffffffffffffffffffffffffffffff16815260200191505060405180910390f35b3415620004a957600080fd5b620004e0600480803573ffffffffffffffffffffffffffffffffffffffff1690602001909190803590602001909190505062000cb1565b604051808215151515815260200191505060405180910390f35b34156200050657600080fd5b6200051062000d69565b604051808273ffffffffffffffffffffffffffffffffffffffff1673ffffffffffffffffffffffffffffffffffffffff16815260200191505060405180910390f35b34156200055e57600080fd5b62000576600480803590602001909190505062000d8f565b005b34156200058457600080fd5b620005bb600480803573ffffffffffffffffffffffffffffffffffffffff1690602001909190803590602001909190505062000eb2565b604051808215151515815260200191505060405180910390f35b3415620005e157600080fd5b620005eb62000ee5565b005b3415620005f957600080fd5b6200060362000f26565b604051808273ffffffffffffffffffffffffffffffffffffffff1673ffffffffffffffffffffffffffffffffffffffff16815260200191505060405180910390f35b34156200065157600080fd5b6200067f600480803573ffffffffffffffffffffffffffffffffffffffff1690602001909190505062000f4c565b6040518082815260200191505060405180910390f35b3415620006a157600080fd5b620006ab62000f95565b604051808215151515815260200191505060405180910390f35b3415620006d157600080fd5b620006db6200105f565b005b3415620006e957600080fd5b620006f36200116e565b604051808273ffffffffffffffffffffffffffffffffffffffff1673ffffffffffffffffffffffffffffffffffffffff16815260200191505060405180910390f35b34156200074157600080fd5b6200074b62001194565b005b34156200075957600080fd5b62000763620013c7565b6040518080602001828103825283818151815260200191508051906020019080838360005b83811015620007a557808201518184015260208101905062000788565b50505050905090810190601f168015620007d35780820380516001836020036101000a031916815260200191505b509250505060405180910390f35b3415620007ed57600080fd5b62000805600480803590602001909190505062001400565b005b34156200081357600080fd5b6200081d62001523565b005b34156200082b57600080fd5b62000862600480803573ffffffffffffffffffffffffffffffffffffffff169060200190919080359060200190919050506200175f565b604051808215151515815260200191505060405180910390f35b34156200088857600080fd5b6200089262001792565b6040518082815260200191505060405180910390f35b3415620008b457600080fd5b620008be62001798565b604051808215151515815260200191505060405180910390f35b3415620008e457600080fd5b620008ee620017ab565b604051808273ffffffffffffffffffffffffffffffffffffffff1673ffffffffffffffffffffffffffffffffffffffff16815260200191505060405180910390f35b34156200093c57600080fd5b62000973600480803573ffffffffffffffffffffffffffffffffffffffff16906020019091908035906020019091905050620017d1565b604051808215151515815260200191505060405180910390f35b34156200099957600080fd5b620009a362001804565b6040518082815260200191505060405180910390f35b3415620009c557600080fd5b620009cf6200180a565b6040518082815260200191505060405180910390f35b3415620009f157600080fd5b62000a3e600480803573ffffffffffffffffffffffffffffffffffffffff1690602001909190803573ffffffffffffffffffffffffffffffffffffffff1690602001909190505062001810565b6040518082815260200191505060405180910390f35b341562000a6057600080fd5b62000a8e600480803573ffffffffffffffffffffffffffffffffffffffff1690602001909190505062001897565b005b600360149054906101000a900460ff1681565b6040805190810160405280600c81526020017f56657269667920546f6b656e000000000000000000000000000000000000000081525081565b6000600c60009054906101000a900460ff1615151562000afb57600080fd5b62000b078383620019f1565b905092915050565b60005481565b6000600c60009054906101000a900460ff1615151562000b3457600080fd5b62000b4184848462001ae3565b90509392505050565b600360009054906101000a900473ffffffffffffffffffffffffffffffffffffffff1673ffffffffffffffffffffffffffffffffffffffff163373ffffffffffffffffffffffffffffffffffffffff1614151562000ba757600080fd5b600360149054906101000a900460ff1615151562000bc457600080fd5b6000600a5414151562000bd657600080fd5b80600a8190555062000bf48160005462001eab90919063ffffffff16565b600081905550600760009054906101000a900473ffffffffffffffffffffffffffffffffffffffff1673ffffffffffffffffffffffffffffffffffffffff167fd5affc481b89c8cf112cd1da804a20132c3dc51285767f0e5649cc7dcbc02d08826040518082815260200191505060405180910390a250565b601281565b60045481565b600e60009054906101000a900460ff1681565b600e60019054906101000a900473ffffffffffffffffffffffffffffffffffffffff1681565b6000600360009054906101000a900473ffffffffffffffffffffffffffffffffffffffff1673ffffffffffffffffffffffffffffffffffffffff163373ffffffffffffffffffffffffffffffffffffffff1614151562000d1057600080fd5b600360149054906101000a900460ff1615151562000d2d57600080fd5b60045462000d478360005462001eab90919063ffffffff16565b1115151562000d5557600080fd5b62000d61838362001eca565b905092915050565b600660009054906101000a900473ffffffffffffffffffffffffffffffffffffffff1681565b600360009054906101000a900473ffffffffffffffffffffffffffffffffffffffff1673ffffffffffffffffffffffffffffffffffffffff163373ffffffffffffffffffffffffffffffffffffffff1614151562000dec57600080fd5b600360149054906101000a900460ff1615151562000e0957600080fd5b600060095414151562000e1b57600080fd5b8060098190555062000e398160005462001eab90919063ffffffff16565b600081905550600660009054906101000a900473ffffffffffffffffffffffffffffffffffffffff1673ffffffffffffffffffffffffffffffffffffffff167fd5affc481b89c8cf112cd1da804a20132c3dc51285767f0e5649cc7dcbc02d08826040518082815260200191505060405180910390a250565b6000600c60009054906101000a900460ff1615151562000ed157600080fd5b62000edd8383620020b8565b905092915050565b6000600d5411151562000ef757600080fd5b600d54421015151562000f0957600080fd5b6000600c60006101000a81548160ff021916908315150217905550565b600860009054906101000a900473ffffffffffffffffffffffffffffffffffffffff1681565b6000600160008373ffffffffffffffffffffffffffffffffffffffff1673ffffffffffffffffffffffffffffffffffffffff168152602001908152602001600020549050919050565b6000600360009054906101000a900473ffffffffffffffffffffffffffffffffffffffff1673ffffffffffffffffffffffffffffffffffffffff163373ffffffffffffffffffffffffffffffffffffffff1614151562000ff457600080fd5b600360149054906101000a900460ff161515156200101157600080fd5b6001600360146101000a81548160ff0219169083151502179055507fae5184fba832cb2b1f702aca6117b8d265eaf03ad33eb133f19dde0f5920fa0860405160405180910390a16001905090565b600c60009054906101000a900460ff161515156200107c57600080fd5b62278d00600f540142101515156200109357600080fd5b600e60019054906101000a900473ffffffffffffffffffffffffffffffffffffffff1673ffffffffffffffffffffffffffffffffffffffff166319165587306040518263ffffffff167c0100000000000000000000000000000000000000000000000000000000028152600401808273ffffffffffffffffffffffffffffffffffffffff1673ffffffffffffffffffffffffffffffffffffffff168152602001915050600060405180830381600087803b15156200115057600080fd5b6102c65a03f115156200116257600080fd5b50505042600f81905550565b600360009054906101000a900473ffffffffffffffffffffffffffffffffffffffff1681565b600c60009054906101000a900460ff16151515620011b157600080fd5b6005544210151515620011c357600080fd5b600e60009054906101000a900460ff16151515620011e057600080fd5b6200125860095460016000600660009054906101000a900473ffffffffffffffffffffffffffffffffffffffff1673ffffffffffffffffffffffffffffffffffffffff1673ffffffffffffffffffffffffffffffffffffffff1681526020019081526020016000205462001eab90919063ffffffff16565b60016000600660009054906101000a900473ffffffffffffffffffffffffffffffffffffffff1673ffffffffffffffffffffffffffffffffffffffff1673ffffffffffffffffffffffffffffffffffffffff1681526020019081526020016000208190555062001335600a5460016000600760009054906101000a900473ffffffffffffffffffffffffffffffffffffffff1673ffffffffffffffffffffffffffffffffffffffff1673ffffffffffffffffffffffffffffffffffffffff1681526020019081526020016000205462001eab90919063ffffffff16565b60016000600760009054906101000a900473ffffffffffffffffffffffffffffffffffffffff1673ffffffffffffffffffffffffffffffffffffffff1673ffffffffffffffffffffffffffffffffffffffff1681526020019081526020016000208190555060006009819055506000600a819055506001600e60006101000a81548160ff021916908315150217905550565b6040805190810160405280600481526020017f435245440000000000000000000000000000000000000000000000000000000081525081565b600360009054906101000a900473ffffffffffffffffffffffffffffffffffffffff1673ffffffffffffffffffffffffffffffffffffffff163373ffffffffffffffffffffffffffffffffffffffff161415156200145d57600080fd5b600360149054906101000a900460ff161515156200147a57600080fd5b6000600b541415156200148c57600080fd5b80600b81905550620014aa8160005462001eab90919063ffffffff16565b600081905550600860009054906101000a900473ffffffffffffffffffffffffffffffffffffffff1673ffffffffffffffffffffffffffffffffffffffff167fd5affc481b89c8cf112cd1da804a20132c3dc51285767f0e5649cc7dcbc02d08826040518082815260200191505060405180910390a250565b600360009054906101000a900473ffffffffffffffffffffffffffffffffffffffff1673ffffffffffffffffffffffffffffffffffffffff163373ffffffffffffffffffffffffffffffffffffffff161415156200158057600080fd5b6000600a541115156200159257600080fd5b6000600954111515620015a457600080fd5b6000600b54111515620015b657600080fd5b620015c062000f95565b506000600360006101000a81548173ffffffffffffffffffffffffffffffffffffffff021916908373ffffffffffffffffffffffffffffffffffffffff160217905550600860009054906101000a900473ffffffffffffffffffffffffffffffffffffffff164262794a006303c2670060006200163c6200278f565b808673ffffffffffffffffffffffffffffffffffffffff1673ffffffffffffffffffffffffffffffffffffffff1681526020018581526020018481526020018381526020018215151515815260200195505050505050604051809103906000f0801515620016a957600080fd5b600e60016101000a81548173ffffffffffffffffffffffffffffffffffffffff021916908373ffffffffffffffffffffffffffffffffffffffff160217905550600b5460016000600e60019054906101000a900473ffffffffffffffffffffffffffffffffffffffff1673ffffffffffffffffffffffffffffffffffffffff1673ffffffffffffffffffffffffffffffffffffffff1681526020019081526020016000208190555062093a804201600d81905550565b6000600c60009054906101000a900460ff161515156200177e57600080fd5b6200178a83836200234d565b905092915050565b60055481565b600c60009054906101000a900460ff1681565b600760009054906101000a900473ffffffffffffffffffffffffffffffffffffffff1681565b6000600c60009054906101000a900460ff16151515620017f057600080fd5b620017fc838362002577565b905092915050565b600d5481565b600f5481565b6000600260008473ffffffffffffffffffffffffffffffffffffffff1673ffffffffffffffffffffffffffffffffffffffff16815260200190815260200160002060008373ffffffffffffffffffffffffffffffffffffffff1673ffffffffffffffffffffffffffffffffffffffff16815260200190815260200160002054905092915050565b600360009054906101000a900473ffffffffffffffffffffffffffffffffffffffff1673ffffffffffffffffffffffffffffffffffffffff163373ffffffffffffffffffffffffffffffffffffffff16141515620018f457600080fd5b600073ffffffffffffffffffffffffffffffffffffffff168173ffffffffffffffffffffffffffffffffffffffff16141515156200193157600080fd5b8073ffffffffffffffffffffffffffffffffffffffff16600360009054906101000a900473ffffffffffffffffffffffffffffffffffffffff1673ffffffffffffffffffffffffffffffffffffffff167f8be0079c531659141344cd1fd0a4f28419497f9722a3daafe3b4186f6b6457e060405160405180910390a380600360006101000a81548173ffffffffffffffffffffffffffffffffffffffff021916908373ffffffffffffffffffffffffffffffffffffffff16021790555050565b600081600260003373ffffffffffffffffffffffffffffffffffffffff1673ffffffffffffffffffffffffffffffffffffffff16815260200190815260200160002060008573ffffffffffffffffffffffffffffffffffffffff1673ffffffffffffffffffffffffffffffffffffffff168152602001908152602001600020819055508273ffffffffffffffffffffffffffffffffffffffff163373ffffffffffffffffffffffffffffffffffffffff167f8c5be1e5ebec7d5bd14f71427d1e84f3dd0314c0f7b2291e5b200ac8c7c3b925846040518082815260200191505060405180910390a36001905092915050565b60008073ffffffffffffffffffffffffffffffffffffffff168373ffffffffffffffffffffffffffffffffffffffff161415151562001b2157600080fd5b600160008573ffffffffffffffffffffffffffffffffffffffff1673ffffffffffffffffffffffffffffffffffffffff16815260200190815260200160002054821115151562001b7057600080fd5b600260008573ffffffffffffffffffffffffffffffffffffffff1673ffffffffffffffffffffffffffffffffffffffff16815260200190815260200160002060003373ffffffffffffffffffffffffffffffffffffffff1673ffffffffffffffffffffffffffffffffffffffff16815260200190815260200160002054821115151562001bfc57600080fd5b62001c5082600160008773ffffffffffffffffffffffffffffffffffffffff1673ffffffffffffffffffffffffffffffffffffffff168152602001908152602001600020546200277590919063ffffffff16565b600160008673ffffffffffffffffffffffffffffffffffffffff1673ffffffffffffffffffffffffffffffffffffffff1681526020019081526020016000208190555062001ce782600160008673ffffffffffffffffffffffffffffffffffffffff1673ffffffffffffffffffffffffffffffffffffffff1681526020019081526020016000205462001eab90919063ffffffff16565b600160008573ffffffffffffffffffffffffffffffffffffffff1673ffffffffffffffffffffffffffffffffffffffff1681526020019081526020016000208190555062001dbb82600260008773ffffffffffffffffffffffffffffffffffffffff1673ffffffffffffffffffffffffffffffffffffffff16815260200190815260200160002060003373ffffffffffffffffffffffffffffffffffffffff1673ffffffffffffffffffffffffffffffffffffffff168152602001908152602001600020546200277590919063ffffffff16565b600260008673ffffffffffffffffffffffffffffffffffffffff1673ffffffffffffffffffffffffffffffffffffffff16815260200190815260200160002060003373ffffffffffffffffffffffffffffffffffffffff1673ffffffffffffffffffffffffffffffffffffffff168152602001908152602001600020819055508273ffffffffffffffffffffffffffffffffffffffff168473ffffffffffffffffffffffffffffffffffffffff167fddf252ad1be2c89b69c2b068fc378daa952ba7f163c4a11628f55a4df523b3ef846040518082815260200191505060405180910390a3600190509392505050565b600080828401905083811015151562001ec057fe5b8091505092915050565b6000600360009054906101000a900473ffffffffffffffffffffffffffffffffffffffff1673ffffffffffffffffffffffffffffffffffffffff163373ffffffffffffffffffffffffffffffffffffffff1614151562001f2957600080fd5b600360149054906101000a900460ff1615151562001f4657600080fd5b62001f5d8260005462001eab90919063ffffffff16565b60008190555062001fb782600160008673ffffffffffffffffffffffffffffffffffffffff1673ffffffffffffffffffffffffffffffffffffffff1681526020019081526020016000205462001eab90919063ffffffff16565b600160008573ffffffffffffffffffffffffffffffffffffffff1673ffffffffffffffffffffffffffffffffffffffff168152602001908152602001600020819055508273ffffffffffffffffffffffffffffffffffffffff167f0f6798a560793a54c3bcfe86a93cde1e73087d944c0ea20544137d4121396885836040518082815260200191505060405180910390a28273ffffffffffffffffffffffffffffffffffffffff16600073ffffffffffffffffffffffffffffffffffffffff167fddf252ad1be2c89b69c2b068fc378daa952ba7f163c4a11628f55a4df523b3ef846040518082815260200191505060405180910390a36001905092915050565b600080600260003373ffffffffffffffffffffffffffffffffffffffff1673ffffffffffffffffffffffffffffffffffffffff16815260200190815260200160002060008573ffffffffffffffffffffffffffffffffffffffff1673ffffffffffffffffffffffffffffffffffffffff16815260200190815260200160002054905080831115620021cb576000600260003373ffffffffffffffffffffffffffffffffffffffff1673ffffffffffffffffffffffffffffffffffffffff16815260200190815260200160002060008673ffffffffffffffffffffffffffffffffffffffff1673ffffffffffffffffffffffffffffffffffffffff1681526020019081526020016000208190555062002261565b620021e083826200277590919063ffffffff16565b600260003373ffffffffffffffffffffffffffffffffffffffff1673ffffffffffffffffffffffffffffffffffffffff16815260200190815260200160002060008673ffffffffffffffffffffffffffffffffffffffff1673ffffffffffffffffffffffffffffffffffffffff168152602001908152602001600020819055505b8373ffffffffffffffffffffffffffffffffffffffff163373ffffffffffffffffffffffffffffffffffffffff167f8c5be1e5ebec7d5bd14f71427d1e84f3dd0314c0f7b2291e5b200ac8c7c3b925600260003373ffffffffffffffffffffffffffffffffffffffff1673ffffffffffffffffffffffffffffffffffffffff16815260200190815260200160002060008873ffffffffffffffffffffffffffffffffffffffff1673ffffffffffffffffffffffffffffffffffffffff168152602001908152602001600020546040518082815260200191505060405180910390a3600191505092915050565b60008073ffffffffffffffffffffffffffffffffffffffff168373ffffffffffffffffffffffffffffffffffffffff16141515156200238b57600080fd5b600160003373ffffffffffffffffffffffffffffffffffffffff1673ffffffffffffffffffffffffffffffffffffffff168152602001908152602001600020548211151515620023da57600080fd5b6200242e82600160003373ffffffffffffffffffffffffffffffffffffffff1673ffffffffffffffffffffffffffffffffffffffff168152602001908152602001600020546200277590919063ffffffff16565b600160003373ffffffffffffffffffffffffffffffffffffffff1673ffffffffffffffffffffffffffffffffffffffff16815260200190815260200160002081905550620024c582600160008673ffffffffffffffffffffffffffffffffffffffff1673ffffffffffffffffffffffffffffffffffffffff1681526020019081526020016000205462001eab90919063ffffffff16565b600160008573ffffffffffffffffffffffffffffffffffffffff1673ffffffffffffffffffffffffffffffffffffffff168152602001908152602001600020819055508273ffffffffffffffffffffffffffffffffffffffff163373ffffffffffffffffffffffffffffffffffffffff167fddf252ad1be2c89b69c2b068fc378daa952ba7f163c4a11628f55a4df523b3ef846040518082815260200191505060405180910390a36001905092915050565b60006200260a82600260003373ffffffffffffffffffffffffffffffffffffffff1673ffffffffffffffffffffffffffffffffffffffff16815260200190815260200160002060008673ffffffffffffffffffffffffffffffffffffffff1673ffffffffffffffffffffffffffffffffffffffff1681526020019081526020016000205462001eab90919063ffffffff16565b600260003373ffffffffffffffffffffffffffffffffffffffff1673ffffffffffffffffffffffffffffffffffffffff16815260200190815260200160002060008573ffffffffffffffffffffffffffffffffffffffff1673ffffffffffffffffffffffffffffffffffffffff168152602001908152602001600020819055508273ffffffffffffffffffffffffffffffffffffffff163373ffffffffffffffffffffffffffffffffffffffff167f8c5be1e5ebec7d5bd14f71427d1e84f3dd0314c0f7b2291e5b200ac8c7c3b925600260003373ffffffffffffffffffffffffffffffffffffffff1673ffffffffffffffffffffffffffffffffffffffff16815260200190815260200160002060008773ffffffffffffffffffffffffffffffffffffffff1673ffffffffffffffffffffffffffffffffffffffff168152602001908152602001600020546040518082815260200191505060405180910390a36001905092915050565b60008282111515156200278457fe5b818303905092915050565b604051610f3a80620027a18339019056006060604052341561000f57600080fd5b60405160a080610f3a83398101604052808051906020019091908051906020019091908051906020019091908051906020019091908051906020019091905050336000806101000a81548173ffffffffffffffffffffffffffffffffffffffff021916908373ffffffffffffffffffffffffffffffffffffffff160217905550600073ffffffffffffffffffffffffffffffffffffffff168573ffffffffffffffffffffffffffffffffffffffff16141515156100cb57600080fd5b8183111515156100da57600080fd5b84600160006101000a81548173ffffffffffffffffffffffffffffffffffffffff021916908373ffffffffffffffffffffffffffffffffffffffff16021790555080600560006101000a81548160ff0219169083151502179055508160048190555061015c838561017364010000000002610c27179091906401000000009004565b600281905550836003819055505050505050610191565b600080828401905083811015151561018757fe5b8091505092915050565b610d9a806101a06000396000f3006060604052600436106100c5576000357c0100000000000000000000000000000000000000000000000000000000900463ffffffff1680630fb5a6b4146100ca57806313d033c0146100f35780631726cbc81461011c5780631916558714610169578063384711cc146101a257806338af3eed146101ef57806374a8f10314610244578063872a78101461027d5780638da5cb5b146102aa5780639852595c146102ff578063be9a65551461034c578063f2fde38b14610375578063fa01dc06146103ae575b600080fd5b34156100d557600080fd5b6100dd6103ff565b6040518082815260200191505060405180910390f35b34156100fe57600080fd5b610106610405565b6040518082815260200191505060405180910390f35b341561012757600080fd5b610153600480803573ffffffffffffffffffffffffffffffffffffffff1690602001909190505061040b565b6040518082815260200191505060405180910390f35b341561017457600080fd5b6101a0600480803573ffffffffffffffffffffffffffffffffffffffff1690602001909190505061046e565b005b34156101ad57600080fd5b6101d9600480803573ffffffffffffffffffffffffffffffffffffffff169060200190919050506105a7565b6040518082815260200191505060405180910390f35b34156101fa57600080fd5b610202610793565b604051808273ffffffffffffffffffffffffffffffffffffffff1673ffffffffffffffffffffffffffffffffffffffff16815260200191505060405180910390f35b341561024f57600080fd5b61027b600480803573ffffffffffffffffffffffffffffffffffffffff169060200190919050506107b9565b005b341561028857600080fd5b610290610a43565b604051808215151515815260200191505060405180910390f35b34156102b557600080fd5b6102bd610a56565b604051808273ffffffffffffffffffffffffffffffffffffffff1673ffffffffffffffffffffffffffffffffffffffff16815260200191505060405180910390f35b341561030a57600080fd5b610336600480803573ffffffffffffffffffffffffffffffffffffffff16906020019091905050610a7b565b6040518082815260200191505060405180910390f35b341561035757600080fd5b61035f610a93565b6040518082815260200191505060405180910390f35b341561038057600080fd5b6103ac600480803573ffffffffffffffffffffffffffffffffffffffff16906020019091905050610a99565b005b34156103b957600080fd5b6103e5600480803573ffffffffffffffffffffffffffffffffffffffff16906020019091905050610bee565b604051808215151515815260200191505060405180910390f35b60045481565b60025481565b6000610467600660008473ffffffffffffffffffffffffffffffffffffffff1673ffffffffffffffffffffffffffffffffffffffff16815260200190815260200160002054610459846105a7565b610c0e90919063ffffffff16565b9050919050565b60006104798261040b565b905060008111151561048a57600080fd5b6104dc81600660008573ffffffffffffffffffffffffffffffffffffffff1673ffffffffffffffffffffffffffffffffffffffff16815260200190815260200160002054610c2790919063ffffffff16565b600660008473ffffffffffffffffffffffffffffffffffffffff1673ffffffffffffffffffffffffffffffffffffffff1681526020019081526020016000208190555061056c600160009054906101000a900473ffffffffffffffffffffffffffffffffffffffff16828473ffffffffffffffffffffffffffffffffffffffff16610c459092919063ffffffff16565b7ffb81f9b30d73d830c3544b34d827c08142579ee75710b490bab0b3995468c565816040518082815260200191505060405180910390a15050565b60008060008373ffffffffffffffffffffffffffffffffffffffff166370a08231306000604051602001526040518263ffffffff167c0100000000000000000000000000000000000000000000000000000000028152600401808273ffffffffffffffffffffffffffffffffffffffff1673ffffffffffffffffffffffffffffffffffffffff168152602001915050602060405180830381600087803b151561064f57600080fd5b6102c65a03f1151561066057600080fd5b5050506040518051905091506106be600660008673ffffffffffffffffffffffffffffffffffffffff1673ffffffffffffffffffffffffffffffffffffffff1681526020019081526020016000205483610c2790919063ffffffff16565b90506002544210156106d3576000925061078c565b6106ea600454600354610c2790919063ffffffff16565b421015806107415750600760008573ffffffffffffffffffffffffffffffffffffffff1673ffffffffffffffffffffffffffffffffffffffff16815260200190815260200160002060009054906101000a900460ff165b1561074e5780925061078c565b61078960045461077b61076c60035442610c0e90919063ffffffff16565b84610d1890919063ffffffff16565b610d5390919063ffffffff16565b92505b5050919050565b600160009054906101000a900473ffffffffffffffffffffffffffffffffffffffff1681565b60008060008060009054906101000a900473ffffffffffffffffffffffffffffffffffffffff1673ffffffffffffffffffffffffffffffffffffffff163373ffffffffffffffffffffffffffffffffffffffff1614151561081957600080fd5b600560009054906101000a900460ff16151561083457600080fd5b600760008573ffffffffffffffffffffffffffffffffffffffff1673ffffffffffffffffffffffffffffffffffffffff16815260200190815260200160002060009054906101000a900460ff1615151561088d57600080fd5b8373ffffffffffffffffffffffffffffffffffffffff166370a08231306000604051602001526040518263ffffffff167c0100000000000000000000000000000000000000000000000000000000028152600401808273ffffffffffffffffffffffffffffffffffffffff1673ffffffffffffffffffffffffffffffffffffffff168152602001915050602060405180830381600087803b151561093057600080fd5b6102c65a03f1151561094157600080fd5b5050506040518051905092506109568461040b565b915061096b8284610c0e90919063ffffffff16565b90506001600760008673ffffffffffffffffffffffffffffffffffffffff1673ffffffffffffffffffffffffffffffffffffffff16815260200190815260200160002060006101000a81548160ff021916908315150217905550610a116000809054906101000a900473ffffffffffffffffffffffffffffffffffffffff16828673ffffffffffffffffffffffffffffffffffffffff16610c459092919063ffffffff16565b7f44825a4b2df8acb19ce4e1afba9aa850c8b65cdb7942e2078f27d0b0960efee660405160405180910390a150505050565b600560009054906101000a900460ff1681565b6000809054906101000a900473ffffffffffffffffffffffffffffffffffffffff1681565b60066020528060005260406000206000915090505481565b60035481565b6000809054906101000a900473ffffffffffffffffffffffffffffffffffffffff1673ffffffffffffffffffffffffffffffffffffffff163373ffffffffffffffffffffffffffffffffffffffff16141515610af457600080fd5b600073ffffffffffffffffffffffffffffffffffffffff168173ffffffffffffffffffffffffffffffffffffffff1614151515610b3057600080fd5b8073ffffffffffffffffffffffffffffffffffffffff166000809054906101000a900473ffffffffffffffffffffffffffffffffffffffff1673ffffffffffffffffffffffffffffffffffffffff167f8be0079c531659141344cd1fd0a4f28419497f9722a3daafe3b4186f6b6457e060405160405180910390a3806000806101000a81548173ffffffffffffffffffffffffffffffffffffffff021916908373ffffffffffffffffffffffffffffffffffffffff16021790555050565b60076020528060005260406000206000915054906101000a900460ff1681565b6000828211151515610c1c57fe5b818303905092915050565b6000808284019050838110151515610c3b57fe5b8091505092915050565b8273ffffffffffffffffffffffffffffffffffffffff1663a9059cbb83836000604051602001526040518363ffffffff167c0100000000000000000000000000000000000000000000000000000000028152600401808373ffffffffffffffffffffffffffffffffffffffff1673ffffffffffffffffffffffffffffffffffffffff16815260200182815260200192505050602060405180830381600087803b1515610cf057600080fd5b6102c65a03f11515610d0157600080fd5b505050604051805190501515610d1357fe5b505050565b6000806000841415610d2d5760009150610d4c565b8284029050828482811515610d3e57fe5b04141515610d4857fe5b8091505b5092915050565b6000808284811515610d6157fe5b04905080915050929150505600a165627a7a72305820b17443f57983af05906b284f2a0ddf3f69645658d05a0b66850942114af98ff00029a165627a7a723058204ab5d5d64f3863d04e7af5b8a02afed46b96585f5569eb17e2709e7923c1e8910029",
  "source": "pragma solidity ^0.4.18;\n\n\nimport './CREDToken.sol';\nimport 'zeppelin-solidity/contracts/crowdsale/CappedCrowdsale.sol';\nimport 'zeppelin-solidity/contracts/crowdsale/Crowdsale.sol';\nimport 'zeppelin-solidity/contracts/lifecycle/Pausable.sol';\n\n\ncontract Tokensale is CappedCrowdsale, Pausable{\n    using SafeMath for uint256;\n\n    uint256 constant public MAX_SUPPLY = 50000000 * 10 ** 18;\n    uint256 constant public SALE_TOKENS_SUPPLY = 11125000 * 10 ** 18;\n    uint256 constant public INVESTMENT_FUND_TOKENS_SUPPLY = 10500000 * 10 ** 18;\n    uint256 constant public MISCELLANEOUS_TOKENS_SUPPLY = 2875000 * 10 ** 18;\n    uint256 constant public TEAM_TOKENS_SUPPLY = 10000000 * 10 ** 18;\n    uint256 constant public RESERVE_TOKENS_SUPPLY = 10000000 * 10 ** 18;\n    uint256 constant public ADVISORS_TOKENS_SUPPLY = 5500000 * 10 ** 18;\n\n\n    uint256 public totalSold;\n    uint256 public soldDuringTokensale;\n\n    uint256 public presaleStartTime;\n\n    mapping(address => uint256) public presaleLimit;\n\n    /// Note a pre-ICO sale.\n    event Prepurchased(address indexed recipient, uint256 etherPaid, uint256 tokensSold);\n\n    modifier beforeSale() {\n        require(now < startTime);\n        _;\n    }\n\n    modifier duringSale() {\n        require(now >= startTime && !hasEnded() && !paused);\n        _;\n    }\n\n    function Tokensale(\n        uint256 _presaleStartTime,\n        uint256 _startTime,\n        uint256 _hardCap,\n        address _investmentFundWallet,\n        address _miscellaneousWallet,\n        address _treasury,\n        address _teamWallet,\n        address _reserveWallet,\n        address _advisorsWallet\n    )\n    Crowdsale(_startTime, _startTime + 30 days, SALE_TOKENS_SUPPLY.div(_hardCap), _treasury)\n    CappedCrowdsale(_hardCap)\n    public\n    {\n        require(_startTime > _presaleStartTime);\n        token = new CREDToken(\n            MAX_SUPPLY,\n            _startTime + 1 years,\n            _teamWallet,\n            _reserveWallet,\n            _advisorsWallet\n        );\n        presaleStartTime = _presaleStartTime;\n        mintInvestmentFundAndMiscellaneous(_investmentFundWallet, _miscellaneousWallet);\n        castedToken().mintTeamTokens(TEAM_TOKENS_SUPPLY);\n        castedToken().mintReserveTokens(RESERVE_TOKENS_SUPPLY);\n        castedToken().mintAdvisorsTokens(ADVISORS_TOKENS_SUPPLY);\n\n    }\n\n    function setHardCap(uint256 _cap) public onlyOwner {\n        require(now < presaleStartTime);\n        cap = _cap;\n        rate = SALE_TOKENS_SUPPLY.div(_cap);\n    }\n\n    // Function for setting presale buy limits for list of accounts\n    function addPresaleWallets(address[] _wallets, uint256[] _weiLimit) public onlyOwner {\n        require(now < startTime);\n        require(_wallets.length == _weiLimit.length);\n        for (uint256 i = 0; i < _wallets.length; i++) {\n            presaleLimit[_wallets[i]] = _weiLimit[i];\n        }\n    }\n\n    // Override to track sold tokens\n    function buyTokens(address beneficiary) public payable {\n        super.buyTokens(beneficiary);\n        // If bought in presale, decrease limit\n        if (now < startTime) {\n            presaleLimit[msg.sender] = presaleLimit[msg.sender].sub(msg.value);\n        }\n        totalSold = totalSold.add(msg.value.mul(rate));\n    }\n\n    function finalise() public {\n        require(hasEnded());\n        castedToken().finalise();\n    }\n\n    function mintInvestmentFundAndMiscellaneous(\n        address _investmentFundWallet,\n        address _miscellaneousWallet\n    ) internal {\n        token.mint(_investmentFundWallet, INVESTMENT_FUND_TOKENS_SUPPLY);\n        token.mint(_miscellaneousWallet, MISCELLANEOUS_TOKENS_SUPPLY);\n    }\n\n    function castedToken() internal view returns (CREDToken) {\n        return CREDToken(token);\n    }\n\n    // Overrides Crowdsale#createTokenContract not to create new token\n    // CRED Token is created in the constructor\n    function createTokenContract() internal returns (MintableToken) {\n        return MintableToken(address(0));\n    }\n\n    function validSalePurchase() internal view returns (bool) {\n        return super.validPurchase();\n    }\n\n    function validPreSalePurchase() internal view returns (bool) {\n        if (msg.value > presaleLimit[msg.sender]) { return false; }\n        if (weiRaised.add(msg.value) > cap) { return false; }\n        if (now < presaleStartTime) { return false; }\n        if (now >= startTime) { return false; }\n        return true;\n    }\n\n    // Overrides CappedCrowdsale#createTokenContract to check if not paused\n    function validPurchase() internal view returns (bool) {\n        require(!paused);\n        return validSalePurchase() || validPreSalePurchase();\n    }\n\n}\n",
  "sourcePath": "/Users/derain/Projects/smartcont/contracts/Tokensale.sol",
  "compiler": {
    "name": "solc",
    "version": "0.4.18+commit.9cf6e910.Emscripten.clang"
  },
  "schemaVersion": "1.0.1",
  "updatedAt": "2017-12-05T07:40:42.637Z"
}